{
	"DEVESH/LearnBlockchain/VotingSytem Project/contracts/Voting.sol": {
		"Voting": {
			"abi": [
				{
					"inputs": [],
					"stateMutability": "nonpayable",
					"type": "constructor"
				},
				{
					"inputs": [
						{
							"internalType": "uint256",
							"name": "",
							"type": "uint256"
						}
					],
					"name": "candidateAddresses",
					"outputs": [
						{
							"internalType": "address",
							"name": "",
							"type": "address"
						}
					],
					"stateMutability": "view",
					"type": "function"
				},
				{
					"inputs": [
						{
							"internalType": "address",
							"name": "_candidateAddress",
							"type": "address"
						}
					],
					"name": "castVote",
					"outputs": [],
					"stateMutability": "nonpayable",
					"type": "function"
				},
				{
					"inputs": [],
					"name": "getCandidateAddresses",
					"outputs": [
						{
							"internalType": "address[]",
							"name": "",
							"type": "address[]"
						}
					],
					"stateMutability": "view",
					"type": "function"
				},
				{
					"inputs": [],
					"name": "organizer",
					"outputs": [
						{
							"internalType": "address",
							"name": "",
							"type": "address"
						}
					],
					"stateMutability": "view",
					"type": "function"
				},
				{
					"inputs": [
						{
							"internalType": "address",
							"name": "_candidateAddress",
							"type": "address"
						},
						{
							"internalType": "string",
							"name": "_name",
							"type": "string"
						},
						{
							"internalType": "string",
							"name": "_party",
							"type": "string"
						},
						{
							"internalType": "uint256",
							"name": "_age",
							"type": "uint256"
						}
					],
					"name": "registerCandidate",
					"outputs": [],
					"stateMutability": "nonpayable",
					"type": "function"
				},
				{
					"inputs": [
						{
							"internalType": "string",
							"name": "_name",
							"type": "string"
						},
						{
							"internalType": "uint256",
							"name": "_age",
							"type": "uint256"
						}
					],
					"name": "registerVoter",
					"outputs": [],
					"stateMutability": "nonpayable",
					"type": "function"
				}
			],
			"devdoc": {
				"kind": "dev",
				"methods": {},
				"version": 1
			},
			"evm": {
				"assembly": "    /* \"DEVESH/LearnBlockchain/VotingSytem Project/contracts/Voting.sol\":70:2017  contract Voting {... */\n  mstore(0x40, 0x80)\n    /* \"DEVESH/LearnBlockchain/VotingSytem Project/contracts/Voting.sol\":219:319  constructor() {... */\n  callvalue\n  dup1\n  iszero\n  tag_1\n  jumpi\n  0x00\n  dup1\n  revert\ntag_1:\n  pop\n    /* \"DEVESH/LearnBlockchain/VotingSytem Project/contracts/Voting.sol\":255:265  msg.sender */\n  caller\n    /* \"DEVESH/LearnBlockchain/VotingSytem Project/contracts/Voting.sol\":243:252  organizer */\n  0x00\n  dup1\n    /* \"DEVESH/LearnBlockchain/VotingSytem Project/contracts/Voting.sol\":243:265  organizer = msg.sender */\n  0x0100\n  exp\n  dup2\n  sload\n  dup2\n  0xffffffffffffffffffffffffffffffffffffffff\n  mul\n  not\n  and\n  swap1\n  dup4\n  0xffffffffffffffffffffffffffffffffffffffff\n  and\n  mul\n  or\n  swap1\n  sstore\n  pop\n    /* \"DEVESH/LearnBlockchain/VotingSytem Project/contracts/Voting.sol\":308:312  3600 */\n  0x0e10\n    /* \"DEVESH/LearnBlockchain/VotingSytem Project/contracts/Voting.sol\":290:305  block.timestamp */\n  timestamp\n    /* \"DEVESH/LearnBlockchain/VotingSytem Project/contracts/Voting.sol\":290:312  block.timestamp + 3600 */\n  tag_4\n  swap2\n  swap1\n  tag_5\n  jump\t// in\ntag_4:\n    /* \"DEVESH/LearnBlockchain/VotingSytem Project/contracts/Voting.sol\":275:287  votingPeriod */\n  0x01\n    /* \"DEVESH/LearnBlockchain/VotingSytem Project/contracts/Voting.sol\":275:312  votingPeriod = block.timestamp + 3600 */\n  dup2\n  swap1\n  sstore\n  pop\n    /* \"DEVESH/LearnBlockchain/VotingSytem Project/contracts/Voting.sol\":70:2017  contract Voting {... */\n  jump(tag_6)\n    /* \"#utility.yul\":7:84   */\ntag_7:\n    /* \"#utility.yul\":44:51   */\n  0x00\n    /* \"#utility.yul\":73:78   */\n  dup2\n    /* \"#utility.yul\":62:78   */\n  swap1\n  pop\n    /* \"#utility.yul\":7:84   */\n  swap2\n  swap1\n  pop\n  jump\t// out\n    /* \"#utility.yul\":90:270   */\ntag_8:\n    /* \"#utility.yul\":138:215   */\n  0x4e487b7100000000000000000000000000000000000000000000000000000000\n    /* \"#utility.yul\":135:136   */\n  0x00\n    /* \"#utility.yul\":128:216   */\n  mstore\n    /* \"#utility.yul\":235:239   */\n  0x11\n    /* \"#utility.yul\":232:233   */\n  0x04\n    /* \"#utility.yul\":225:240   */\n  mstore\n    /* \"#utility.yul\":259:263   */\n  0x24\n    /* \"#utility.yul\":256:257   */\n  0x00\n    /* \"#utility.yul\":249:264   */\n  revert\n    /* \"#utility.yul\":276:467   */\ntag_5:\n    /* \"#utility.yul\":316:319   */\n  0x00\n    /* \"#utility.yul\":335:355   */\n  tag_13\n    /* \"#utility.yul\":353:354   */\n  dup3\n    /* \"#utility.yul\":335:355   */\n  tag_7\n  jump\t// in\ntag_13:\n    /* \"#utility.yul\":330:355   */\n  swap2\n  pop\n    /* \"#utility.yul\":369:389   */\n  tag_14\n    /* \"#utility.yul\":387:388   */\n  dup4\n    /* \"#utility.yul\":369:389   */\n  tag_7\n  jump\t// in\ntag_14:\n    /* \"#utility.yul\":364:389   */\n  swap3\n  pop\n    /* \"#utility.yul\":412:413   */\n  dup3\n    /* \"#utility.yul\":409:410   */\n  dup3\n    /* \"#utility.yul\":405:414   */\n  add\n    /* \"#utility.yul\":398:414   */\n  swap1\n  pop\n    /* \"#utility.yul\":433:436   */\n  dup1\n    /* \"#utility.yul\":430:431   */\n  dup3\n    /* \"#utility.yul\":427:437   */\n  gt\n    /* \"#utility.yul\":424:460   */\n  iszero\n  tag_15\n  jumpi\n    /* \"#utility.yul\":440:458   */\n  tag_16\n  tag_8\n  jump\t// in\ntag_16:\n    /* \"#utility.yul\":424:460   */\ntag_15:\n    /* \"#utility.yul\":276:467   */\n  swap3\n  swap2\n  pop\n  pop\n  jump\t// out\n    /* \"DEVESH/LearnBlockchain/VotingSytem Project/contracts/Voting.sol\":70:2017  contract Voting {... */\ntag_6:\n  dataSize(sub_0)\n  dup1\n  dataOffset(sub_0)\n  0x00\n  codecopy\n  0x00\n  return\nstop\n\nsub_0: assembly {\n        /* \"DEVESH/LearnBlockchain/VotingSytem Project/contracts/Voting.sol\":70:2017  contract Voting {... */\n      mstore(0x40, 0x80)\n      callvalue\n      dup1\n      iszero\n      tag_1\n      jumpi\n      0x00\n      dup1\n      revert\n    tag_1:\n      pop\n      jumpi(tag_2, lt(calldatasize, 0x04))\n      shr(0xe0, calldataload(0x00))\n      dup1\n      0x24a557b0\n      eq\n      tag_3\n      jumpi\n      dup1\n      0x53358fc4\n      eq\n      tag_4\n      jumpi\n      dup1\n      0x61203265\n      eq\n      tag_5\n      jumpi\n      dup1\n      0x8155f736\n      eq\n      tag_6\n      jumpi\n      dup1\n      0xd55d73c5\n      eq\n      tag_7\n      jumpi\n      dup1\n      0xe661ea5f\n      eq\n      tag_8\n      jumpi\n    tag_2:\n      0x00\n      dup1\n      revert\n        /* \"DEVESH/LearnBlockchain/VotingSytem Project/contracts/Voting.sol\":1138:1582  function registerCandidate(... */\n    tag_3:\n      tag_9\n      0x04\n      dup1\n      calldatasize\n      sub\n      dup2\n      add\n      swap1\n      tag_10\n      swap2\n      swap1\n      tag_11\n      jump\t// in\n    tag_10:\n      tag_12\n      jump\t// in\n    tag_9:\n      stop\n        /* \"DEVESH/LearnBlockchain/VotingSytem Project/contracts/Voting.sol\":1708:2015  function castVote(address _candidateAddress) public  {... */\n    tag_4:\n      tag_13\n      0x04\n      dup1\n      calldatasize\n      sub\n      dup2\n      add\n      swap1\n      tag_14\n      swap2\n      swap1\n      tag_15\n      jump\t// in\n    tag_14:\n      tag_16\n      jump\t// in\n    tag_13:\n      stop\n        /* \"DEVESH/LearnBlockchain/VotingSytem Project/contracts/Voting.sol\":92:116  address public organizer */\n    tag_5:\n      tag_17\n      tag_18\n      jump\t// in\n    tag_17:\n      mload(0x40)\n      tag_19\n      swap2\n      swap1\n      tag_20\n      jump\t// in\n    tag_19:\n      mload(0x40)\n      dup1\n      swap2\n      sub\n      swap1\n      return\n        /* \"DEVESH/LearnBlockchain/VotingSytem Project/contracts/Voting.sol\":1588:1702  function getCandidateAddresses() public view returns (address[] memory) {... */\n    tag_6:\n      tag_21\n      tag_22\n      jump\t// in\n    tag_21:\n      mload(0x40)\n      tag_23\n      swap2\n      swap1\n      tag_24\n      jump\t// in\n    tag_23:\n      mload(0x40)\n      dup1\n      swap2\n      sub\n      swap1\n      return\n        /* \"DEVESH/LearnBlockchain/VotingSytem Project/contracts/Voting.sol\":177:212  address[] public candidateAddresses */\n    tag_7:\n      tag_25\n      0x04\n      dup1\n      calldatasize\n      sub\n      dup2\n      add\n      swap1\n      tag_26\n      swap2\n      swap1\n      tag_27\n      jump\t// in\n    tag_26:\n      tag_28\n      jump\t// in\n    tag_25:\n      mload(0x40)\n      tag_29\n      swap2\n      swap1\n      tag_20\n      jump\t// in\n    tag_29:\n      mload(0x40)\n      dup1\n      swap2\n      sub\n      swap1\n      return\n        /* \"DEVESH/LearnBlockchain/VotingSytem Project/contracts/Voting.sol\":823:1132  function registerVoter(string memory _name, uint256 _age) public {... */\n    tag_8:\n      tag_30\n      0x04\n      dup1\n      calldatasize\n      sub\n      dup2\n      add\n      swap1\n      tag_31\n      swap2\n      swap1\n      tag_32\n      jump\t// in\n    tag_31:\n      tag_33\n      jump\t// in\n    tag_30:\n      stop\n        /* \"DEVESH/LearnBlockchain/VotingSytem Project/contracts/Voting.sol\":1138:1582  function registerCandidate(... */\n    tag_12:\n        /* \"DEVESH/LearnBlockchain/VotingSytem Project/contracts/Voting.sol\":722:731  organizer */\n      0x00\n      dup1\n      sload\n      swap1\n      0x0100\n      exp\n      swap1\n      div\n      0xffffffffffffffffffffffffffffffffffffffff\n      and\n        /* \"DEVESH/LearnBlockchain/VotingSytem Project/contracts/Voting.sol\":708:731  msg.sender == organizer */\n      0xffffffffffffffffffffffffffffffffffffffff\n      and\n        /* \"DEVESH/LearnBlockchain/VotingSytem Project/contracts/Voting.sol\":708:718  msg.sender */\n      caller\n        /* \"DEVESH/LearnBlockchain/VotingSytem Project/contracts/Voting.sol\":708:731  msg.sender == organizer */\n      0xffffffffffffffffffffffffffffffffffffffff\n      and\n      eq\n        /* \"DEVESH/LearnBlockchain/VotingSytem Project/contracts/Voting.sol\":687:799  require(... */\n      tag_35\n      jumpi\n      mload(0x40)\n      0x08c379a000000000000000000000000000000000000000000000000000000000\n      dup2\n      mstore\n      0x04\n      add\n      tag_36\n      swap1\n      tag_37\n      jump\t// in\n    tag_36:\n      mload(0x40)\n      dup1\n      swap2\n      sub\n      swap1\n      revert\n    tag_35:\n        /* \"DEVESH/LearnBlockchain/VotingSytem Project/contracts/Voting.sol\":1318:1352  electionCandidate memory candidate */\n      0x00\n        /* \"DEVESH/LearnBlockchain/VotingSytem Project/contracts/Voting.sol\":1355:1445  electionCandidate({... */\n      mload(0x40)\n      dup1\n      0x80\n      add\n      0x40\n      mstore\n      dup1\n        /* \"DEVESH/LearnBlockchain/VotingSytem Project/contracts/Voting.sol\":1393:1398  _name */\n      dup6\n        /* \"DEVESH/LearnBlockchain/VotingSytem Project/contracts/Voting.sol\":1355:1445  electionCandidate({... */\n      dup2\n      mstore\n      0x20\n      add\n        /* \"DEVESH/LearnBlockchain/VotingSytem Project/contracts/Voting.sol\":1407:1413  _party */\n      dup5\n        /* \"DEVESH/LearnBlockchain/VotingSytem Project/contracts/Voting.sol\":1355:1445  electionCandidate({... */\n      dup2\n      mstore\n      0x20\n      add\n        /* \"DEVESH/LearnBlockchain/VotingSytem Project/contracts/Voting.sol\":1420:1424  _age */\n      dup4\n        /* \"DEVESH/LearnBlockchain/VotingSytem Project/contracts/Voting.sol\":1355:1445  electionCandidate({... */\n      dup2\n      mstore\n      0x20\n      add\n        /* \"DEVESH/LearnBlockchain/VotingSytem Project/contracts/Voting.sol\":1433:1434  0 */\n      0x00\n        /* \"DEVESH/LearnBlockchain/VotingSytem Project/contracts/Voting.sol\":1355:1445  electionCandidate({... */\n      dup2\n      mstore\n      pop\n        /* \"DEVESH/LearnBlockchain/VotingSytem Project/contracts/Voting.sol\":1318:1445  electionCandidate memory candidate = electionCandidate({... */\n      swap1\n      pop\n        /* \"DEVESH/LearnBlockchain/VotingSytem Project/contracts/Voting.sol\":1488:1497  candidate */\n      dup1\n        /* \"DEVESH/LearnBlockchain/VotingSytem Project/contracts/Voting.sol\":1456:1466  candidates */\n      0x04\n        /* \"DEVESH/LearnBlockchain/VotingSytem Project/contracts/Voting.sol\":1456:1485  candidates[_candidateAddress] */\n      0x00\n        /* \"DEVESH/LearnBlockchain/VotingSytem Project/contracts/Voting.sol\":1467:1484  _candidateAddress */\n      dup8\n        /* \"DEVESH/LearnBlockchain/VotingSytem Project/contracts/Voting.sol\":1456:1485  candidates[_candidateAddress] */\n      0xffffffffffffffffffffffffffffffffffffffff\n      and\n      0xffffffffffffffffffffffffffffffffffffffff\n      and\n      dup2\n      mstore\n      0x20\n      add\n      swap1\n      dup2\n      mstore\n      0x20\n      add\n      0x00\n      keccak256\n        /* \"DEVESH/LearnBlockchain/VotingSytem Project/contracts/Voting.sol\":1456:1497  candidates[_candidateAddress] = candidate */\n      0x00\n      dup3\n      add\n      mload\n      dup2\n      0x00\n      add\n      swap1\n      dup2\n      tag_39\n      swap2\n      swap1\n      tag_40\n      jump\t// in\n    tag_39:\n      pop\n      0x20\n      dup3\n      add\n      mload\n      dup2\n      0x01\n      add\n      swap1\n      dup2\n      tag_41\n      swap2\n      swap1\n      tag_40\n      jump\t// in\n    tag_41:\n      pop\n      0x40\n      dup3\n      add\n      mload\n      dup2\n      0x02\n      add\n      sstore\n      0x60\n      dup3\n      add\n      mload\n      dup2\n      0x03\n      add\n      sstore\n      swap1\n      pop\n      pop\n        /* \"DEVESH/LearnBlockchain/VotingSytem Project/contracts/Voting.sol\":1507:1525  candidateAddresses */\n      0x03\n        /* \"DEVESH/LearnBlockchain/VotingSytem Project/contracts/Voting.sol\":1531:1548  _candidateAddress */\n      dup6\n        /* \"DEVESH/LearnBlockchain/VotingSytem Project/contracts/Voting.sol\":1507:1549  candidateAddresses.push(_candidateAddress) */\n      swap1\n      dup1\n      0x01\n      dup2\n      sload\n      add\n      dup1\n      dup3\n      sstore\n      dup1\n      swap2\n      pop\n      pop\n      0x01\n      swap1\n      sub\n      swap1\n      0x00\n      mstore\n      keccak256(0x00, 0x20)\n      add\n      0x00\n      swap1\n      swap2\n      swap1\n      swap2\n      swap1\n      swap2\n      0x0100\n      exp\n      dup2\n      sload\n      dup2\n      0xffffffffffffffffffffffffffffffffffffffff\n      mul\n      not\n      and\n      swap1\n      dup4\n      0xffffffffffffffffffffffffffffffffffffffff\n      and\n      mul\n      or\n      swap1\n      sstore\n      pop\n        /* \"DEVESH/LearnBlockchain/VotingSytem Project/contracts/Voting.sol\":1559:1573  candidateCount */\n      0x02\n      0x00\n        /* \"DEVESH/LearnBlockchain/VotingSytem Project/contracts/Voting.sol\":1559:1575  candidateCount++ */\n      dup2\n      sload\n      dup1\n      swap3\n      swap2\n      swap1\n      tag_43\n      swap1\n      tag_44\n      jump\t// in\n    tag_43:\n      swap2\n      swap1\n      pop\n      sstore\n      pop\n        /* \"DEVESH/LearnBlockchain/VotingSytem Project/contracts/Voting.sol\":1308:1582  {... */\n      pop\n        /* \"DEVESH/LearnBlockchain/VotingSytem Project/contracts/Voting.sol\":1138:1582  function registerCandidate(... */\n      pop\n      pop\n      pop\n      pop\n      jump\t// out\n        /* \"DEVESH/LearnBlockchain/VotingSytem Project/contracts/Voting.sol\":1708:2015  function castVote(address _candidateAddress) public  {... */\n    tag_16:\n        /* \"DEVESH/LearnBlockchain/VotingSytem Project/contracts/Voting.sol\":1797:1809  votingPeriod */\n      sload(0x01)\n        /* \"DEVESH/LearnBlockchain/VotingSytem Project/contracts/Voting.sol\":1779:1794  block.timestamp */\n      timestamp\n        /* \"DEVESH/LearnBlockchain/VotingSytem Project/contracts/Voting.sol\":1779:1809  block.timestamp < votingPeriod */\n      lt\n        /* \"DEVESH/LearnBlockchain/VotingSytem Project/contracts/Voting.sol\":1771:1810  require(block.timestamp < votingPeriod) */\n      tag_46\n      jumpi\n      0x00\n      dup1\n      revert\n    tag_46:\n        /* \"DEVESH/LearnBlockchain/VotingSytem Project/contracts/Voting.sol\":1858:1859  0 */\n      0x00\n        /* \"DEVESH/LearnBlockchain/VotingSytem Project/contracts/Voting.sol\":1828:1838  votersList */\n      0x05\n        /* \"DEVESH/LearnBlockchain/VotingSytem Project/contracts/Voting.sol\":1828:1850  votersList[msg.sender] */\n      0x00\n        /* \"DEVESH/LearnBlockchain/VotingSytem Project/contracts/Voting.sol\":1839:1849  msg.sender */\n      caller\n        /* \"DEVESH/LearnBlockchain/VotingSytem Project/contracts/Voting.sol\":1828:1850  votersList[msg.sender] */\n      0xffffffffffffffffffffffffffffffffffffffff\n      and\n      0xffffffffffffffffffffffffffffffffffffffff\n      and\n      dup2\n      mstore\n      0x20\n      add\n      swap1\n      dup2\n      mstore\n      0x20\n      add\n      0x00\n      keccak256\n        /* \"DEVESH/LearnBlockchain/VotingSytem Project/contracts/Voting.sol\":1828:1854  votersList[msg.sender].age */\n      0x01\n      add\n      sload\n        /* \"DEVESH/LearnBlockchain/VotingSytem Project/contracts/Voting.sol\":1828:1859  votersList[msg.sender].age != 0 */\n      sub\n        /* \"DEVESH/LearnBlockchain/VotingSytem Project/contracts/Voting.sol\":1820:1883  require(votersList[msg.sender].age != 0, \"You are not a voter\") */\n      tag_47\n      jumpi\n      mload(0x40)\n      0x08c379a000000000000000000000000000000000000000000000000000000000\n      dup2\n      mstore\n      0x04\n      add\n      tag_48\n      swap1\n      tag_49\n      jump\t// in\n    tag_48:\n      mload(0x40)\n      dup1\n      swap2\n      sub\n      swap1\n      revert\n    tag_47:\n        /* \"DEVESH/LearnBlockchain/VotingSytem Project/contracts/Voting.sol\":1925:1930  false */\n      0x00\n        /* \"DEVESH/LearnBlockchain/VotingSytem Project/contracts/Voting.sol\":1901:1930  hasVoted[msg.sender] == false */\n      iszero\n      iszero\n        /* \"DEVESH/LearnBlockchain/VotingSytem Project/contracts/Voting.sol\":1901:1909  hasVoted */\n      0x06\n        /* \"DEVESH/LearnBlockchain/VotingSytem Project/contracts/Voting.sol\":1901:1921  hasVoted[msg.sender] */\n      0x00\n        /* \"DEVESH/LearnBlockchain/VotingSytem Project/contracts/Voting.sol\":1910:1920  msg.sender */\n      caller\n        /* \"DEVESH/LearnBlockchain/VotingSytem Project/contracts/Voting.sol\":1901:1921  hasVoted[msg.sender] */\n      0xffffffffffffffffffffffffffffffffffffffff\n      and\n      0xffffffffffffffffffffffffffffffffffffffff\n      and\n      dup2\n      mstore\n      0x20\n      add\n      swap1\n      dup2\n      mstore\n      0x20\n      add\n      0x00\n      keccak256\n      0x00\n      swap1\n      sload\n      swap1\n      0x0100\n      exp\n      swap1\n      div\n      0xff\n      and\n        /* \"DEVESH/LearnBlockchain/VotingSytem Project/contracts/Voting.sol\":1901:1930  hasVoted[msg.sender] == false */\n      iszero\n      iszero\n      eq\n        /* \"DEVESH/LearnBlockchain/VotingSytem Project/contracts/Voting.sol\":1893:1957  require(hasVoted[msg.sender] == false, \"You have already voted\") */\n      tag_50\n      jumpi\n      mload(0x40)\n      0x08c379a000000000000000000000000000000000000000000000000000000000\n      dup2\n      mstore\n      0x04\n      add\n      tag_51\n      swap1\n      tag_52\n      jump\t// in\n    tag_51:\n      mload(0x40)\n      dup1\n      swap2\n      sub\n      swap1\n      revert\n    tag_50:\n        /* \"DEVESH/LearnBlockchain/VotingSytem Project/contracts/Voting.sol\":2007:2008  1 */\n      0x01\n        /* \"DEVESH/LearnBlockchain/VotingSytem Project/contracts/Voting.sol\":1968:1978  candidates */\n      0x04\n        /* \"DEVESH/LearnBlockchain/VotingSytem Project/contracts/Voting.sol\":1968:1997  candidates[_candidateAddress] */\n      0x00\n        /* \"DEVESH/LearnBlockchain/VotingSytem Project/contracts/Voting.sol\":1979:1996  _candidateAddress */\n      dup4\n        /* \"DEVESH/LearnBlockchain/VotingSytem Project/contracts/Voting.sol\":1968:1997  candidates[_candidateAddress] */\n      0xffffffffffffffffffffffffffffffffffffffff\n      and\n      0xffffffffffffffffffffffffffffffffffffffff\n      and\n      dup2\n      mstore\n      0x20\n      add\n      swap1\n      dup2\n      mstore\n      0x20\n      add\n      0x00\n      keccak256\n        /* \"DEVESH/LearnBlockchain/VotingSytem Project/contracts/Voting.sol\":1968:2003  candidates[_candidateAddress].votes */\n      0x03\n      add\n      0x00\n        /* \"DEVESH/LearnBlockchain/VotingSytem Project/contracts/Voting.sol\":1968:2008  candidates[_candidateAddress].votes += 1 */\n      dup3\n      dup3\n      sload\n      tag_53\n      swap2\n      swap1\n      tag_54\n      jump\t// in\n    tag_53:\n      swap3\n      pop\n      pop\n      dup2\n      swap1\n      sstore\n      pop\n        /* \"DEVESH/LearnBlockchain/VotingSytem Project/contracts/Voting.sol\":1708:2015  function castVote(address _candidateAddress) public  {... */\n      pop\n      jump\t// out\n        /* \"DEVESH/LearnBlockchain/VotingSytem Project/contracts/Voting.sol\":92:116  address public organizer */\n    tag_18:\n      0x00\n      dup1\n      sload\n      swap1\n      0x0100\n      exp\n      swap1\n      div\n      0xffffffffffffffffffffffffffffffffffffffff\n      and\n      dup2\n      jump\t// out\n        /* \"DEVESH/LearnBlockchain/VotingSytem Project/contracts/Voting.sol\":1588:1702  function getCandidateAddresses() public view returns (address[] memory) {... */\n    tag_22:\n        /* \"DEVESH/LearnBlockchain/VotingSytem Project/contracts/Voting.sol\":1642:1658  address[] memory */\n      0x60\n        /* \"DEVESH/LearnBlockchain/VotingSytem Project/contracts/Voting.sol\":1677:1695  candidateAddresses */\n      0x03\n        /* \"DEVESH/LearnBlockchain/VotingSytem Project/contracts/Voting.sol\":1670:1695  return candidateAddresses */\n      dup1\n      sload\n      dup1\n      0x20\n      mul\n      0x20\n      add\n      mload(0x40)\n      swap1\n      dup2\n      add\n      0x40\n      mstore\n      dup1\n      swap3\n      swap2\n      swap1\n      dup2\n      dup2\n      mstore\n      0x20\n      add\n      dup3\n      dup1\n      sload\n      dup1\n      iszero\n      tag_56\n      jumpi\n      0x20\n      mul\n      dup3\n      add\n      swap2\n      swap1\n      0x00\n      mstore\n      keccak256(0x00, 0x20)\n      swap1\n    tag_57:\n      dup2\n      0x00\n      swap1\n      sload\n      swap1\n      0x0100\n      exp\n      swap1\n      div\n      0xffffffffffffffffffffffffffffffffffffffff\n      and\n      0xffffffffffffffffffffffffffffffffffffffff\n      and\n      dup2\n      mstore\n      0x20\n      add\n      swap1\n      0x01\n      add\n      swap1\n      dup1\n      dup4\n      gt\n      tag_57\n      jumpi\n    tag_56:\n      pop\n      pop\n      pop\n      pop\n      pop\n      swap1\n      pop\n        /* \"DEVESH/LearnBlockchain/VotingSytem Project/contracts/Voting.sol\":1588:1702  function getCandidateAddresses() public view returns (address[] memory) {... */\n      swap1\n      jump\t// out\n        /* \"DEVESH/LearnBlockchain/VotingSytem Project/contracts/Voting.sol\":177:212  address[] public candidateAddresses */\n    tag_28:\n      0x03\n      dup2\n      dup2\n      sload\n      dup2\n      lt\n      tag_58\n      jumpi\n      0x00\n      dup1\n      revert\n    tag_58:\n      swap1\n      0x00\n      mstore\n      keccak256(0x00, 0x20)\n      add\n      0x00\n      swap2\n      pop\n      sload\n      swap1\n      0x0100\n      exp\n      swap1\n      div\n      0xffffffffffffffffffffffffffffffffffffffff\n      and\n      dup2\n      jump\t// out\n        /* \"DEVESH/LearnBlockchain/VotingSytem Project/contracts/Voting.sol\":823:1132  function registerVoter(string memory _name, uint256 _age) public {... */\n    tag_33:\n        /* \"DEVESH/LearnBlockchain/VotingSytem Project/contracts/Voting.sol\":914:916  18 */\n      0x12\n        /* \"DEVESH/LearnBlockchain/VotingSytem Project/contracts/Voting.sol\":906:910  _age */\n      dup2\n        /* \"DEVESH/LearnBlockchain/VotingSytem Project/contracts/Voting.sol\":906:916  _age >= 18 */\n      lt\n      iszero\n        /* \"DEVESH/LearnBlockchain/VotingSytem Project/contracts/Voting.sol\":898:949  require(_age >= 18, \"You are not eligible to vote\") */\n      tag_61\n      jumpi\n      mload(0x40)\n      0x08c379a000000000000000000000000000000000000000000000000000000000\n      dup2\n      mstore\n      0x04\n      add\n      tag_62\n      swap1\n      tag_63\n      jump\t// in\n    tag_62:\n      mload(0x40)\n      dup1\n      swap2\n      sub\n      swap1\n      revert\n    tag_61:\n        /* \"DEVESH/LearnBlockchain/VotingSytem Project/contracts/Voting.sol\":997:998  0 */\n      0x00\n        /* \"DEVESH/LearnBlockchain/VotingSytem Project/contracts/Voting.sol\":967:977  votersList */\n      0x05\n        /* \"DEVESH/LearnBlockchain/VotingSytem Project/contracts/Voting.sol\":967:989  votersList[msg.sender] */\n      0x00\n        /* \"DEVESH/LearnBlockchain/VotingSytem Project/contracts/Voting.sol\":978:988  msg.sender */\n      caller\n        /* \"DEVESH/LearnBlockchain/VotingSytem Project/contracts/Voting.sol\":967:989  votersList[msg.sender] */\n      0xffffffffffffffffffffffffffffffffffffffff\n      and\n      0xffffffffffffffffffffffffffffffffffffffff\n      and\n      dup2\n      mstore\n      0x20\n      add\n      swap1\n      dup2\n      mstore\n      0x20\n      add\n      0x00\n      keccak256\n        /* \"DEVESH/LearnBlockchain/VotingSytem Project/contracts/Voting.sol\":967:993  votersList[msg.sender].age */\n      0x01\n      add\n      sload\n        /* \"DEVESH/LearnBlockchain/VotingSytem Project/contracts/Voting.sol\":967:998  votersList[msg.sender].age == 0 */\n      eq\n        /* \"DEVESH/LearnBlockchain/VotingSytem Project/contracts/Voting.sol\":959:1029  require(votersList[msg.sender].age == 0, \"You are already registered\") */\n      tag_64\n      jumpi\n      mload(0x40)\n      0x08c379a000000000000000000000000000000000000000000000000000000000\n      dup2\n      mstore\n      0x04\n      add\n      tag_65\n      swap1\n      tag_66\n      jump\t// in\n    tag_65:\n      mload(0x40)\n      dup1\n      swap2\n      sub\n      swap1\n      revert\n    tag_64:\n        /* \"DEVESH/LearnBlockchain/VotingSytem Project/contracts/Voting.sol\":1040:1061  Voter memory newVoter */\n      0x00\n        /* \"DEVESH/LearnBlockchain/VotingSytem Project/contracts/Voting.sol\":1064:1082  Voter(_name, _age) */\n      mload(0x40)\n      dup1\n      0x40\n      add\n      0x40\n      mstore\n      dup1\n        /* \"DEVESH/LearnBlockchain/VotingSytem Project/contracts/Voting.sol\":1070:1075  _name */\n      dup5\n        /* \"DEVESH/LearnBlockchain/VotingSytem Project/contracts/Voting.sol\":1064:1082  Voter(_name, _age) */\n      dup2\n      mstore\n      0x20\n      add\n        /* \"DEVESH/LearnBlockchain/VotingSytem Project/contracts/Voting.sol\":1077:1081  _age */\n      dup4\n        /* \"DEVESH/LearnBlockchain/VotingSytem Project/contracts/Voting.sol\":1064:1082  Voter(_name, _age) */\n      dup2\n      mstore\n      pop\n        /* \"DEVESH/LearnBlockchain/VotingSytem Project/contracts/Voting.sol\":1040:1082  Voter memory newVoter = Voter(_name, _age) */\n      swap1\n      pop\n        /* \"DEVESH/LearnBlockchain/VotingSytem Project/contracts/Voting.sol\":1117:1125  newVoter */\n      dup1\n        /* \"DEVESH/LearnBlockchain/VotingSytem Project/contracts/Voting.sol\":1092:1102  votersList */\n      0x05\n        /* \"DEVESH/LearnBlockchain/VotingSytem Project/contracts/Voting.sol\":1092:1114  votersList[msg.sender] */\n      0x00\n        /* \"DEVESH/LearnBlockchain/VotingSytem Project/contracts/Voting.sol\":1103:1113  msg.sender */\n      caller\n        /* \"DEVESH/LearnBlockchain/VotingSytem Project/contracts/Voting.sol\":1092:1114  votersList[msg.sender] */\n      0xffffffffffffffffffffffffffffffffffffffff\n      and\n      0xffffffffffffffffffffffffffffffffffffffff\n      and\n      dup2\n      mstore\n      0x20\n      add\n      swap1\n      dup2\n      mstore\n      0x20\n      add\n      0x00\n      keccak256\n        /* \"DEVESH/LearnBlockchain/VotingSytem Project/contracts/Voting.sol\":1092:1125  votersList[msg.sender] = newVoter */\n      0x00\n      dup3\n      add\n      mload\n      dup2\n      0x00\n      add\n      swap1\n      dup2\n      tag_67\n      swap2\n      swap1\n      tag_40\n      jump\t// in\n    tag_67:\n      pop\n      0x20\n      dup3\n      add\n      mload\n      dup2\n      0x01\n      add\n      sstore\n      swap1\n      pop\n      pop\n        /* \"DEVESH/LearnBlockchain/VotingSytem Project/contracts/Voting.sol\":888:1132  {... */\n      pop\n        /* \"DEVESH/LearnBlockchain/VotingSytem Project/contracts/Voting.sol\":823:1132  function registerVoter(string memory _name, uint256 _age) public {... */\n      pop\n      pop\n      jump\t// out\n        /* \"#utility.yul\":7:82   */\n    tag_68:\n        /* \"#utility.yul\":40:46   */\n      0x00\n        /* \"#utility.yul\":73:75   */\n      0x40\n        /* \"#utility.yul\":67:76   */\n      mload\n        /* \"#utility.yul\":57:76   */\n      swap1\n      pop\n        /* \"#utility.yul\":7:82   */\n      swap1\n      jump\t// out\n        /* \"#utility.yul\":88:205   */\n    tag_69:\n        /* \"#utility.yul\":197:198   */\n      0x00\n        /* \"#utility.yul\":194:195   */\n      dup1\n        /* \"#utility.yul\":187:199   */\n      revert\n        /* \"#utility.yul\":211:328   */\n    tag_70:\n        /* \"#utility.yul\":320:321   */\n      0x00\n        /* \"#utility.yul\":317:318   */\n      dup1\n        /* \"#utility.yul\":310:322   */\n      revert\n        /* \"#utility.yul\":334:460   */\n    tag_71:\n        /* \"#utility.yul\":371:378   */\n      0x00\n        /* \"#utility.yul\":411:453   */\n      0xffffffffffffffffffffffffffffffffffffffff\n        /* \"#utility.yul\":404:409   */\n      dup3\n        /* \"#utility.yul\":400:454   */\n      and\n        /* \"#utility.yul\":389:454   */\n      swap1\n      pop\n        /* \"#utility.yul\":334:460   */\n      swap2\n      swap1\n      pop\n      jump\t// out\n        /* \"#utility.yul\":466:562   */\n    tag_72:\n        /* \"#utility.yul\":503:510   */\n      0x00\n        /* \"#utility.yul\":532:556   */\n      tag_132\n        /* \"#utility.yul\":550:555   */\n      dup3\n        /* \"#utility.yul\":532:556   */\n      tag_71\n      jump\t// in\n    tag_132:\n        /* \"#utility.yul\":521:556   */\n      swap1\n      pop\n        /* \"#utility.yul\":466:562   */\n      swap2\n      swap1\n      pop\n      jump\t// out\n        /* \"#utility.yul\":568:690   */\n    tag_73:\n        /* \"#utility.yul\":641:665   */\n      tag_134\n        /* \"#utility.yul\":659:664   */\n      dup2\n        /* \"#utility.yul\":641:665   */\n      tag_72\n      jump\t// in\n    tag_134:\n        /* \"#utility.yul\":634:639   */\n      dup2\n        /* \"#utility.yul\":631:666   */\n      eq\n        /* \"#utility.yul\":621:684   */\n      tag_135\n      jumpi\n        /* \"#utility.yul\":680:681   */\n      0x00\n        /* \"#utility.yul\":677:678   */\n      dup1\n        /* \"#utility.yul\":670:682   */\n      revert\n        /* \"#utility.yul\":621:684   */\n    tag_135:\n        /* \"#utility.yul\":568:690   */\n      pop\n      jump\t// out\n        /* \"#utility.yul\":696:835   */\n    tag_74:\n        /* \"#utility.yul\":742:747   */\n      0x00\n        /* \"#utility.yul\":780:786   */\n      dup2\n        /* \"#utility.yul\":767:787   */\n      calldataload\n        /* \"#utility.yul\":758:787   */\n      swap1\n      pop\n        /* \"#utility.yul\":796:829   */\n      tag_137\n        /* \"#utility.yul\":823:828   */\n      dup2\n        /* \"#utility.yul\":796:829   */\n      tag_73\n      jump\t// in\n    tag_137:\n        /* \"#utility.yul\":696:835   */\n      swap3\n      swap2\n      pop\n      pop\n      jump\t// out\n        /* \"#utility.yul\":841:958   */\n    tag_75:\n        /* \"#utility.yul\":950:951   */\n      0x00\n        /* \"#utility.yul\":947:948   */\n      dup1\n        /* \"#utility.yul\":940:952   */\n      revert\n        /* \"#utility.yul\":964:1081   */\n    tag_76:\n        /* \"#utility.yul\":1073:1074   */\n      0x00\n        /* \"#utility.yul\":1070:1071   */\n      dup1\n        /* \"#utility.yul\":1063:1075   */\n      revert\n        /* \"#utility.yul\":1087:1189   */\n    tag_77:\n        /* \"#utility.yul\":1128:1134   */\n      0x00\n        /* \"#utility.yul\":1179:1181   */\n      0x1f\n        /* \"#utility.yul\":1175:1182   */\n      not\n        /* \"#utility.yul\":1170:1172   */\n      0x1f\n        /* \"#utility.yul\":1163:1168   */\n      dup4\n        /* \"#utility.yul\":1159:1173   */\n      add\n        /* \"#utility.yul\":1155:1183   */\n      and\n        /* \"#utility.yul\":1145:1183   */\n      swap1\n      pop\n        /* \"#utility.yul\":1087:1189   */\n      swap2\n      swap1\n      pop\n      jump\t// out\n        /* \"#utility.yul\":1195:1375   */\n    tag_78:\n        /* \"#utility.yul\":1243:1320   */\n      0x4e487b7100000000000000000000000000000000000000000000000000000000\n        /* \"#utility.yul\":1240:1241   */\n      0x00\n        /* \"#utility.yul\":1233:1321   */\n      mstore\n        /* \"#utility.yul\":1340:1344   */\n      0x41\n        /* \"#utility.yul\":1337:1338   */\n      0x04\n        /* \"#utility.yul\":1330:1345   */\n      mstore\n        /* \"#utility.yul\":1364:1368   */\n      0x24\n        /* \"#utility.yul\":1361:1362   */\n      0x00\n        /* \"#utility.yul\":1354:1369   */\n      revert\n        /* \"#utility.yul\":1381:1662   */\n    tag_79:\n        /* \"#utility.yul\":1464:1491   */\n      tag_143\n        /* \"#utility.yul\":1486:1490   */\n      dup3\n        /* \"#utility.yul\":1464:1491   */\n      tag_77\n      jump\t// in\n    tag_143:\n        /* \"#utility.yul\":1456:1462   */\n      dup2\n        /* \"#utility.yul\":1452:1492   */\n      add\n        /* \"#utility.yul\":1594:1600   */\n      dup2\n        /* \"#utility.yul\":1582:1592   */\n      dup2\n        /* \"#utility.yul\":1579:1601   */\n      lt\n        /* \"#utility.yul\":1558:1576   */\n      0xffffffffffffffff\n        /* \"#utility.yul\":1546:1556   */\n      dup3\n        /* \"#utility.yul\":1543:1577   */\n      gt\n        /* \"#utility.yul\":1540:1602   */\n      or\n        /* \"#utility.yul\":1537:1625   */\n      iszero\n      tag_144\n      jumpi\n        /* \"#utility.yul\":1605:1623   */\n      tag_145\n      tag_78\n      jump\t// in\n    tag_145:\n        /* \"#utility.yul\":1537:1625   */\n    tag_144:\n        /* \"#utility.yul\":1645:1655   */\n      dup1\n        /* \"#utility.yul\":1641:1643   */\n      0x40\n        /* \"#utility.yul\":1634:1656   */\n      mstore\n        /* \"#utility.yul\":1424:1662   */\n      pop\n        /* \"#utility.yul\":1381:1662   */\n      pop\n      pop\n      jump\t// out\n        /* \"#utility.yul\":1668:1797   */\n    tag_80:\n        /* \"#utility.yul\":1702:1708   */\n      0x00\n        /* \"#utility.yul\":1729:1749   */\n      tag_147\n      tag_68\n      jump\t// in\n    tag_147:\n        /* \"#utility.yul\":1719:1749   */\n      swap1\n      pop\n        /* \"#utility.yul\":1758:1791   */\n      tag_148\n        /* \"#utility.yul\":1786:1790   */\n      dup3\n        /* \"#utility.yul\":1778:1784   */\n      dup3\n        /* \"#utility.yul\":1758:1791   */\n      tag_79\n      jump\t// in\n    tag_148:\n        /* \"#utility.yul\":1668:1797   */\n      swap2\n      swap1\n      pop\n      jump\t// out\n        /* \"#utility.yul\":1803:2111   */\n    tag_81:\n        /* \"#utility.yul\":1865:1869   */\n      0x00\n        /* \"#utility.yul\":1955:1973   */\n      0xffffffffffffffff\n        /* \"#utility.yul\":1947:1953   */\n      dup3\n        /* \"#utility.yul\":1944:1974   */\n      gt\n        /* \"#utility.yul\":1941:1997   */\n      iszero\n      tag_150\n      jumpi\n        /* \"#utility.yul\":1977:1995   */\n      tag_151\n      tag_78\n      jump\t// in\n    tag_151:\n        /* \"#utility.yul\":1941:1997   */\n    tag_150:\n        /* \"#utility.yul\":2015:2044   */\n      tag_152\n        /* \"#utility.yul\":2037:2043   */\n      dup3\n        /* \"#utility.yul\":2015:2044   */\n      tag_77\n      jump\t// in\n    tag_152:\n        /* \"#utility.yul\":2007:2044   */\n      swap1\n      pop\n        /* \"#utility.yul\":2099:2103   */\n      0x20\n        /* \"#utility.yul\":2093:2097   */\n      dup2\n        /* \"#utility.yul\":2089:2104   */\n      add\n        /* \"#utility.yul\":2081:2104   */\n      swap1\n      pop\n        /* \"#utility.yul\":1803:2111   */\n      swap2\n      swap1\n      pop\n      jump\t// out\n        /* \"#utility.yul\":2117:2263   */\n    tag_82:\n        /* \"#utility.yul\":2214:2220   */\n      dup3\n        /* \"#utility.yul\":2209:2212   */\n      dup2\n        /* \"#utility.yul\":2204:2207   */\n      dup4\n        /* \"#utility.yul\":2191:2221   */\n      calldatacopy\n        /* \"#utility.yul\":2255:2256   */\n      0x00\n        /* \"#utility.yul\":2246:2252   */\n      dup4\n        /* \"#utility.yul\":2241:2244   */\n      dup4\n        /* \"#utility.yul\":2237:2253   */\n      add\n        /* \"#utility.yul\":2230:2257   */\n      mstore\n        /* \"#utility.yul\":2117:2263   */\n      pop\n      pop\n      pop\n      jump\t// out\n        /* \"#utility.yul\":2269:2694   */\n    tag_83:\n        /* \"#utility.yul\":2347:2352   */\n      0x00\n        /* \"#utility.yul\":2372:2438   */\n      tag_155\n        /* \"#utility.yul\":2388:2437   */\n      tag_156\n        /* \"#utility.yul\":2430:2436   */\n      dup5\n        /* \"#utility.yul\":2388:2437   */\n      tag_81\n      jump\t// in\n    tag_156:\n        /* \"#utility.yul\":2372:2438   */\n      tag_80\n      jump\t// in\n    tag_155:\n        /* \"#utility.yul\":2363:2438   */\n      swap1\n      pop\n        /* \"#utility.yul\":2461:2467   */\n      dup3\n        /* \"#utility.yul\":2454:2459   */\n      dup2\n        /* \"#utility.yul\":2447:2468   */\n      mstore\n        /* \"#utility.yul\":2499:2503   */\n      0x20\n        /* \"#utility.yul\":2492:2497   */\n      dup2\n        /* \"#utility.yul\":2488:2504   */\n      add\n        /* \"#utility.yul\":2537:2540   */\n      dup5\n        /* \"#utility.yul\":2528:2534   */\n      dup5\n        /* \"#utility.yul\":2523:2526   */\n      dup5\n        /* \"#utility.yul\":2519:2535   */\n      add\n        /* \"#utility.yul\":2516:2541   */\n      gt\n        /* \"#utility.yul\":2513:2625   */\n      iszero\n      tag_157\n      jumpi\n        /* \"#utility.yul\":2544:2623   */\n      tag_158\n      tag_76\n      jump\t// in\n    tag_158:\n        /* \"#utility.yul\":2513:2625   */\n    tag_157:\n        /* \"#utility.yul\":2634:2688   */\n      tag_159\n        /* \"#utility.yul\":2681:2687   */\n      dup5\n        /* \"#utility.yul\":2676:2679   */\n      dup3\n        /* \"#utility.yul\":2671:2674   */\n      dup6\n        /* \"#utility.yul\":2634:2688   */\n      tag_82\n      jump\t// in\n    tag_159:\n        /* \"#utility.yul\":2353:2694   */\n      pop\n        /* \"#utility.yul\":2269:2694   */\n      swap4\n      swap3\n      pop\n      pop\n      pop\n      jump\t// out\n        /* \"#utility.yul\":2714:3054   */\n    tag_84:\n        /* \"#utility.yul\":2770:2775   */\n      0x00\n        /* \"#utility.yul\":2819:2822   */\n      dup3\n        /* \"#utility.yul\":2812:2816   */\n      0x1f\n        /* \"#utility.yul\":2804:2810   */\n      dup4\n        /* \"#utility.yul\":2800:2817   */\n      add\n        /* \"#utility.yul\":2796:2823   */\n      slt\n        /* \"#utility.yul\":2786:2908   */\n      tag_161\n      jumpi\n        /* \"#utility.yul\":2827:2906   */\n      tag_162\n      tag_75\n      jump\t// in\n    tag_162:\n        /* \"#utility.yul\":2786:2908   */\n    tag_161:\n        /* \"#utility.yul\":2944:2950   */\n      dup2\n        /* \"#utility.yul\":2931:2951   */\n      calldataload\n        /* \"#utility.yul\":2969:3048   */\n      tag_163\n        /* \"#utility.yul\":3044:3047   */\n      dup5\n        /* \"#utility.yul\":3036:3042   */\n      dup3\n        /* \"#utility.yul\":3029:3033   */\n      0x20\n        /* \"#utility.yul\":3021:3027   */\n      dup7\n        /* \"#utility.yul\":3017:3034   */\n      add\n        /* \"#utility.yul\":2969:3048   */\n      tag_83\n      jump\t// in\n    tag_163:\n        /* \"#utility.yul\":2960:3048   */\n      swap2\n      pop\n        /* \"#utility.yul\":2776:3054   */\n      pop\n        /* \"#utility.yul\":2714:3054   */\n      swap3\n      swap2\n      pop\n      pop\n      jump\t// out\n        /* \"#utility.yul\":3060:3137   */\n    tag_85:\n        /* \"#utility.yul\":3097:3104   */\n      0x00\n        /* \"#utility.yul\":3126:3131   */\n      dup2\n        /* \"#utility.yul\":3115:3131   */\n      swap1\n      pop\n        /* \"#utility.yul\":3060:3137   */\n      swap2\n      swap1\n      pop\n      jump\t// out\n        /* \"#utility.yul\":3143:3265   */\n    tag_86:\n        /* \"#utility.yul\":3216:3240   */\n      tag_166\n        /* \"#utility.yul\":3234:3239   */\n      dup2\n        /* \"#utility.yul\":3216:3240   */\n      tag_85\n      jump\t// in\n    tag_166:\n        /* \"#utility.yul\":3209:3214   */\n      dup2\n        /* \"#utility.yul\":3206:3241   */\n      eq\n        /* \"#utility.yul\":3196:3259   */\n      tag_167\n      jumpi\n        /* \"#utility.yul\":3255:3256   */\n      0x00\n        /* \"#utility.yul\":3252:3253   */\n      dup1\n        /* \"#utility.yul\":3245:3257   */\n      revert\n        /* \"#utility.yul\":3196:3259   */\n    tag_167:\n        /* \"#utility.yul\":3143:3265   */\n      pop\n      jump\t// out\n        /* \"#utility.yul\":3271:3410   */\n    tag_87:\n        /* \"#utility.yul\":3317:3322   */\n      0x00\n        /* \"#utility.yul\":3355:3361   */\n      dup2\n        /* \"#utility.yul\":3342:3362   */\n      calldataload\n        /* \"#utility.yul\":3333:3362   */\n      swap1\n      pop\n        /* \"#utility.yul\":3371:3404   */\n      tag_169\n        /* \"#utility.yul\":3398:3403   */\n      dup2\n        /* \"#utility.yul\":3371:3404   */\n      tag_86\n      jump\t// in\n    tag_169:\n        /* \"#utility.yul\":3271:3410   */\n      swap3\n      swap2\n      pop\n      pop\n      jump\t// out\n        /* \"#utility.yul\":3416:4541   */\n    tag_11:\n        /* \"#utility.yul\":3522:3528   */\n      0x00\n        /* \"#utility.yul\":3530:3536   */\n      dup1\n        /* \"#utility.yul\":3538:3544   */\n      0x00\n        /* \"#utility.yul\":3546:3552   */\n      dup1\n        /* \"#utility.yul\":3595:3598   */\n      0x80\n        /* \"#utility.yul\":3583:3592   */\n      dup6\n        /* \"#utility.yul\":3574:3581   */\n      dup8\n        /* \"#utility.yul\":3570:3593   */\n      sub\n        /* \"#utility.yul\":3566:3599   */\n      slt\n        /* \"#utility.yul\":3563:3683   */\n      iszero\n      tag_171\n      jumpi\n        /* \"#utility.yul\":3602:3681   */\n      tag_172\n      tag_69\n      jump\t// in\n    tag_172:\n        /* \"#utility.yul\":3563:3683   */\n    tag_171:\n        /* \"#utility.yul\":3722:3723   */\n      0x00\n        /* \"#utility.yul\":3747:3800   */\n      tag_173\n        /* \"#utility.yul\":3792:3799   */\n      dup8\n        /* \"#utility.yul\":3783:3789   */\n      dup3\n        /* \"#utility.yul\":3772:3781   */\n      dup9\n        /* \"#utility.yul\":3768:3790   */\n      add\n        /* \"#utility.yul\":3747:3800   */\n      tag_74\n      jump\t// in\n    tag_173:\n        /* \"#utility.yul\":3737:3800   */\n      swap5\n      pop\n        /* \"#utility.yul\":3693:3810   */\n      pop\n        /* \"#utility.yul\":3877:3879   */\n      0x20\n        /* \"#utility.yul\":3866:3875   */\n      dup6\n        /* \"#utility.yul\":3862:3880   */\n      add\n        /* \"#utility.yul\":3849:3881   */\n      calldataload\n        /* \"#utility.yul\":3908:3926   */\n      0xffffffffffffffff\n        /* \"#utility.yul\":3900:3906   */\n      dup2\n        /* \"#utility.yul\":3897:3927   */\n      gt\n        /* \"#utility.yul\":3894:4011   */\n      iszero\n      tag_174\n      jumpi\n        /* \"#utility.yul\":3930:4009   */\n      tag_175\n      tag_70\n      jump\t// in\n    tag_175:\n        /* \"#utility.yul\":3894:4011   */\n    tag_174:\n        /* \"#utility.yul\":4035:4098   */\n      tag_176\n        /* \"#utility.yul\":4090:4097   */\n      dup8\n        /* \"#utility.yul\":4081:4087   */\n      dup3\n        /* \"#utility.yul\":4070:4079   */\n      dup9\n        /* \"#utility.yul\":4066:4088   */\n      add\n        /* \"#utility.yul\":4035:4098   */\n      tag_84\n      jump\t// in\n    tag_176:\n        /* \"#utility.yul\":4025:4098   */\n      swap4\n      pop\n        /* \"#utility.yul\":3820:4108   */\n      pop\n        /* \"#utility.yul\":4175:4177   */\n      0x40\n        /* \"#utility.yul\":4164:4173   */\n      dup6\n        /* \"#utility.yul\":4160:4178   */\n      add\n        /* \"#utility.yul\":4147:4179   */\n      calldataload\n        /* \"#utility.yul\":4206:4224   */\n      0xffffffffffffffff\n        /* \"#utility.yul\":4198:4204   */\n      dup2\n        /* \"#utility.yul\":4195:4225   */\n      gt\n        /* \"#utility.yul\":4192:4309   */\n      iszero\n      tag_177\n      jumpi\n        /* \"#utility.yul\":4228:4307   */\n      tag_178\n      tag_70\n      jump\t// in\n    tag_178:\n        /* \"#utility.yul\":4192:4309   */\n    tag_177:\n        /* \"#utility.yul\":4333:4396   */\n      tag_179\n        /* \"#utility.yul\":4388:4395   */\n      dup8\n        /* \"#utility.yul\":4379:4385   */\n      dup3\n        /* \"#utility.yul\":4368:4377   */\n      dup9\n        /* \"#utility.yul\":4364:4386   */\n      add\n        /* \"#utility.yul\":4333:4396   */\n      tag_84\n      jump\t// in\n    tag_179:\n        /* \"#utility.yul\":4323:4396   */\n      swap3\n      pop\n        /* \"#utility.yul\":4118:4406   */\n      pop\n        /* \"#utility.yul\":4445:4447   */\n      0x60\n        /* \"#utility.yul\":4471:4524   */\n      tag_180\n        /* \"#utility.yul\":4516:4523   */\n      dup8\n        /* \"#utility.yul\":4507:4513   */\n      dup3\n        /* \"#utility.yul\":4496:4505   */\n      dup9\n        /* \"#utility.yul\":4492:4514   */\n      add\n        /* \"#utility.yul\":4471:4524   */\n      tag_87\n      jump\t// in\n    tag_180:\n        /* \"#utility.yul\":4461:4524   */\n      swap2\n      pop\n        /* \"#utility.yul\":4416:4534   */\n      pop\n        /* \"#utility.yul\":3416:4541   */\n      swap3\n      swap6\n      swap2\n      swap5\n      pop\n      swap3\n      pop\n      jump\t// out\n        /* \"#utility.yul\":4547:4876   */\n    tag_15:\n        /* \"#utility.yul\":4606:4612   */\n      0x00\n        /* \"#utility.yul\":4655:4657   */\n      0x20\n        /* \"#utility.yul\":4643:4652   */\n      dup3\n        /* \"#utility.yul\":4634:4641   */\n      dup5\n        /* \"#utility.yul\":4630:4653   */\n      sub\n        /* \"#utility.yul\":4626:4658   */\n      slt\n        /* \"#utility.yul\":4623:4742   */\n      iszero\n      tag_182\n      jumpi\n        /* \"#utility.yul\":4661:4740   */\n      tag_183\n      tag_69\n      jump\t// in\n    tag_183:\n        /* \"#utility.yul\":4623:4742   */\n    tag_182:\n        /* \"#utility.yul\":4781:4782   */\n      0x00\n        /* \"#utility.yul\":4806:4859   */\n      tag_184\n        /* \"#utility.yul\":4851:4858   */\n      dup5\n        /* \"#utility.yul\":4842:4848   */\n      dup3\n        /* \"#utility.yul\":4831:4840   */\n      dup6\n        /* \"#utility.yul\":4827:4849   */\n      add\n        /* \"#utility.yul\":4806:4859   */\n      tag_74\n      jump\t// in\n    tag_184:\n        /* \"#utility.yul\":4796:4859   */\n      swap2\n      pop\n        /* \"#utility.yul\":4752:4869   */\n      pop\n        /* \"#utility.yul\":4547:4876   */\n      swap3\n      swap2\n      pop\n      pop\n      jump\t// out\n        /* \"#utility.yul\":4882:5000   */\n    tag_88:\n        /* \"#utility.yul\":4969:4993   */\n      tag_186\n        /* \"#utility.yul\":4987:4992   */\n      dup2\n        /* \"#utility.yul\":4969:4993   */\n      tag_72\n      jump\t// in\n    tag_186:\n        /* \"#utility.yul\":4964:4967   */\n      dup3\n        /* \"#utility.yul\":4957:4994   */\n      mstore\n        /* \"#utility.yul\":4882:5000   */\n      pop\n      pop\n      jump\t// out\n        /* \"#utility.yul\":5006:5228   */\n    tag_20:\n        /* \"#utility.yul\":5099:5103   */\n      0x00\n        /* \"#utility.yul\":5137:5139   */\n      0x20\n        /* \"#utility.yul\":5126:5135   */\n      dup3\n        /* \"#utility.yul\":5122:5140   */\n      add\n        /* \"#utility.yul\":5114:5140   */\n      swap1\n      pop\n        /* \"#utility.yul\":5150:5221   */\n      tag_188\n        /* \"#utility.yul\":5218:5219   */\n      0x00\n        /* \"#utility.yul\":5207:5216   */\n      dup4\n        /* \"#utility.yul\":5203:5220   */\n      add\n        /* \"#utility.yul\":5194:5200   */\n      dup5\n        /* \"#utility.yul\":5150:5221   */\n      tag_88\n      jump\t// in\n    tag_188:\n        /* \"#utility.yul\":5006:5228   */\n      swap3\n      swap2\n      pop\n      pop\n      jump\t// out\n        /* \"#utility.yul\":5234:5348   */\n    tag_89:\n        /* \"#utility.yul\":5301:5307   */\n      0x00\n        /* \"#utility.yul\":5335:5340   */\n      dup2\n        /* \"#utility.yul\":5329:5341   */\n      mload\n        /* \"#utility.yul\":5319:5341   */\n      swap1\n      pop\n        /* \"#utility.yul\":5234:5348   */\n      swap2\n      swap1\n      pop\n      jump\t// out\n        /* \"#utility.yul\":5354:5538   */\n    tag_90:\n        /* \"#utility.yul\":5453:5464   */\n      0x00\n        /* \"#utility.yul\":5487:5493   */\n      dup3\n        /* \"#utility.yul\":5482:5485   */\n      dup3\n        /* \"#utility.yul\":5475:5494   */\n      mstore\n        /* \"#utility.yul\":5527:5531   */\n      0x20\n        /* \"#utility.yul\":5522:5525   */\n      dup3\n        /* \"#utility.yul\":5518:5532   */\n      add\n        /* \"#utility.yul\":5503:5532   */\n      swap1\n      pop\n        /* \"#utility.yul\":5354:5538   */\n      swap3\n      swap2\n      pop\n      pop\n      jump\t// out\n        /* \"#utility.yul\":5544:5676   */\n    tag_91:\n        /* \"#utility.yul\":5611:5615   */\n      0x00\n        /* \"#utility.yul\":5634:5637   */\n      dup2\n        /* \"#utility.yul\":5626:5637   */\n      swap1\n      pop\n        /* \"#utility.yul\":5664:5668   */\n      0x20\n        /* \"#utility.yul\":5659:5662   */\n      dup3\n        /* \"#utility.yul\":5655:5669   */\n      add\n        /* \"#utility.yul\":5647:5669   */\n      swap1\n      pop\n        /* \"#utility.yul\":5544:5676   */\n      swap2\n      swap1\n      pop\n      jump\t// out\n        /* \"#utility.yul\":5682:5790   */\n    tag_92:\n        /* \"#utility.yul\":5759:5783   */\n      tag_193\n        /* \"#utility.yul\":5777:5782   */\n      dup2\n        /* \"#utility.yul\":5759:5783   */\n      tag_72\n      jump\t// in\n    tag_193:\n        /* \"#utility.yul\":5754:5757   */\n      dup3\n        /* \"#utility.yul\":5747:5784   */\n      mstore\n        /* \"#utility.yul\":5682:5790   */\n      pop\n      pop\n      jump\t// out\n        /* \"#utility.yul\":5796:5975   */\n    tag_93:\n        /* \"#utility.yul\":5865:5875   */\n      0x00\n        /* \"#utility.yul\":5886:5932   */\n      tag_195\n        /* \"#utility.yul\":5928:5931   */\n      dup4\n        /* \"#utility.yul\":5920:5926   */\n      dup4\n        /* \"#utility.yul\":5886:5932   */\n      tag_92\n      jump\t// in\n    tag_195:\n        /* \"#utility.yul\":5964:5968   */\n      0x20\n        /* \"#utility.yul\":5959:5962   */\n      dup4\n        /* \"#utility.yul\":5955:5969   */\n      add\n        /* \"#utility.yul\":5941:5969   */\n      swap1\n      pop\n        /* \"#utility.yul\":5796:5975   */\n      swap3\n      swap2\n      pop\n      pop\n      jump\t// out\n        /* \"#utility.yul\":5981:6094   */\n    tag_94:\n        /* \"#utility.yul\":6051:6055   */\n      0x00\n        /* \"#utility.yul\":6083:6087   */\n      0x20\n        /* \"#utility.yul\":6078:6081   */\n      dup3\n        /* \"#utility.yul\":6074:6088   */\n      add\n        /* \"#utility.yul\":6066:6088   */\n      swap1\n      pop\n        /* \"#utility.yul\":5981:6094   */\n      swap2\n      swap1\n      pop\n      jump\t// out\n        /* \"#utility.yul\":6130:6862   */\n    tag_95:\n        /* \"#utility.yul\":6249:6252   */\n      0x00\n        /* \"#utility.yul\":6278:6332   */\n      tag_198\n        /* \"#utility.yul\":6326:6331   */\n      dup3\n        /* \"#utility.yul\":6278:6332   */\n      tag_89\n      jump\t// in\n    tag_198:\n        /* \"#utility.yul\":6348:6434   */\n      tag_199\n        /* \"#utility.yul\":6427:6433   */\n      dup2\n        /* \"#utility.yul\":6422:6425   */\n      dup6\n        /* \"#utility.yul\":6348:6434   */\n      tag_90\n      jump\t// in\n    tag_199:\n        /* \"#utility.yul\":6341:6434   */\n      swap4\n      pop\n        /* \"#utility.yul\":6458:6514   */\n      tag_200\n        /* \"#utility.yul\":6508:6513   */\n      dup4\n        /* \"#utility.yul\":6458:6514   */\n      tag_91\n      jump\t// in\n    tag_200:\n        /* \"#utility.yul\":6537:6544   */\n      dup1\n        /* \"#utility.yul\":6568:6569   */\n      0x00\n        /* \"#utility.yul\":6553:6837   */\n    tag_201:\n        /* \"#utility.yul\":6578:6584   */\n      dup4\n        /* \"#utility.yul\":6575:6576   */\n      dup2\n        /* \"#utility.yul\":6572:6585   */\n      lt\n        /* \"#utility.yul\":6553:6837   */\n      iszero\n      tag_203\n      jumpi\n        /* \"#utility.yul\":6654:6660   */\n      dup2\n        /* \"#utility.yul\":6648:6661   */\n      mload\n        /* \"#utility.yul\":6681:6744   */\n      tag_204\n        /* \"#utility.yul\":6740:6743   */\n      dup9\n        /* \"#utility.yul\":6725:6738   */\n      dup3\n        /* \"#utility.yul\":6681:6744   */\n      tag_93\n      jump\t// in\n    tag_204:\n        /* \"#utility.yul\":6674:6744   */\n      swap8\n      pop\n        /* \"#utility.yul\":6767:6827   */\n      tag_205\n        /* \"#utility.yul\":6820:6826   */\n      dup4\n        /* \"#utility.yul\":6767:6827   */\n      tag_94\n      jump\t// in\n    tag_205:\n        /* \"#utility.yul\":6757:6827   */\n      swap3\n      pop\n        /* \"#utility.yul\":6613:6837   */\n      pop\n        /* \"#utility.yul\":6600:6601   */\n      0x01\n        /* \"#utility.yul\":6597:6598   */\n      dup2\n        /* \"#utility.yul\":6593:6602   */\n      add\n        /* \"#utility.yul\":6588:6602   */\n      swap1\n      pop\n        /* \"#utility.yul\":6553:6837   */\n      jump(tag_201)\n    tag_203:\n        /* \"#utility.yul\":6557:6571   */\n      pop\n        /* \"#utility.yul\":6853:6856   */\n      dup6\n        /* \"#utility.yul\":6846:6856   */\n      swap4\n      pop\n        /* \"#utility.yul\":6254:6862   */\n      pop\n      pop\n      pop\n        /* \"#utility.yul\":6130:6862   */\n      swap3\n      swap2\n      pop\n      pop\n      jump\t// out\n        /* \"#utility.yul\":6868:7241   */\n    tag_24:\n        /* \"#utility.yul\":7011:7015   */\n      0x00\n        /* \"#utility.yul\":7049:7051   */\n      0x20\n        /* \"#utility.yul\":7038:7047   */\n      dup3\n        /* \"#utility.yul\":7034:7052   */\n      add\n        /* \"#utility.yul\":7026:7052   */\n      swap1\n      pop\n        /* \"#utility.yul\":7098:7107   */\n      dup2\n        /* \"#utility.yul\":7092:7096   */\n      dup2\n        /* \"#utility.yul\":7088:7108   */\n      sub\n        /* \"#utility.yul\":7084:7085   */\n      0x00\n        /* \"#utility.yul\":7073:7082   */\n      dup4\n        /* \"#utility.yul\":7069:7086   */\n      add\n        /* \"#utility.yul\":7062:7109   */\n      mstore\n        /* \"#utility.yul\":7126:7234   */\n      tag_207\n        /* \"#utility.yul\":7229:7233   */\n      dup2\n        /* \"#utility.yul\":7220:7226   */\n      dup5\n        /* \"#utility.yul\":7126:7234   */\n      tag_95\n      jump\t// in\n    tag_207:\n        /* \"#utility.yul\":7118:7234   */\n      swap1\n      pop\n        /* \"#utility.yul\":6868:7241   */\n      swap3\n      swap2\n      pop\n      pop\n      jump\t// out\n        /* \"#utility.yul\":7247:7576   */\n    tag_27:\n        /* \"#utility.yul\":7306:7312   */\n      0x00\n        /* \"#utility.yul\":7355:7357   */\n      0x20\n        /* \"#utility.yul\":7343:7352   */\n      dup3\n        /* \"#utility.yul\":7334:7341   */\n      dup5\n        /* \"#utility.yul\":7330:7353   */\n      sub\n        /* \"#utility.yul\":7326:7358   */\n      slt\n        /* \"#utility.yul\":7323:7442   */\n      iszero\n      tag_209\n      jumpi\n        /* \"#utility.yul\":7361:7440   */\n      tag_210\n      tag_69\n      jump\t// in\n    tag_210:\n        /* \"#utility.yul\":7323:7442   */\n    tag_209:\n        /* \"#utility.yul\":7481:7482   */\n      0x00\n        /* \"#utility.yul\":7506:7559   */\n      tag_211\n        /* \"#utility.yul\":7551:7558   */\n      dup5\n        /* \"#utility.yul\":7542:7548   */\n      dup3\n        /* \"#utility.yul\":7531:7540   */\n      dup6\n        /* \"#utility.yul\":7527:7549   */\n      add\n        /* \"#utility.yul\":7506:7559   */\n      tag_87\n      jump\t// in\n    tag_211:\n        /* \"#utility.yul\":7496:7559   */\n      swap2\n      pop\n        /* \"#utility.yul\":7452:7569   */\n      pop\n        /* \"#utility.yul\":7247:7576   */\n      swap3\n      swap2\n      pop\n      pop\n      jump\t// out\n        /* \"#utility.yul\":7582:8236   */\n    tag_32:\n        /* \"#utility.yul\":7660:7666   */\n      0x00\n        /* \"#utility.yul\":7668:7674   */\n      dup1\n        /* \"#utility.yul\":7717:7719   */\n      0x40\n        /* \"#utility.yul\":7705:7714   */\n      dup4\n        /* \"#utility.yul\":7696:7703   */\n      dup6\n        /* \"#utility.yul\":7692:7715   */\n      sub\n        /* \"#utility.yul\":7688:7720   */\n      slt\n        /* \"#utility.yul\":7685:7804   */\n      iszero\n      tag_213\n      jumpi\n        /* \"#utility.yul\":7723:7802   */\n      tag_214\n      tag_69\n      jump\t// in\n    tag_214:\n        /* \"#utility.yul\":7685:7804   */\n    tag_213:\n        /* \"#utility.yul\":7871:7872   */\n      0x00\n        /* \"#utility.yul\":7860:7869   */\n      dup4\n        /* \"#utility.yul\":7856:7873   */\n      add\n        /* \"#utility.yul\":7843:7874   */\n      calldataload\n        /* \"#utility.yul\":7901:7919   */\n      0xffffffffffffffff\n        /* \"#utility.yul\":7893:7899   */\n      dup2\n        /* \"#utility.yul\":7890:7920   */\n      gt\n        /* \"#utility.yul\":7887:8004   */\n      iszero\n      tag_215\n      jumpi\n        /* \"#utility.yul\":7923:8002   */\n      tag_216\n      tag_70\n      jump\t// in\n    tag_216:\n        /* \"#utility.yul\":7887:8004   */\n    tag_215:\n        /* \"#utility.yul\":8028:8091   */\n      tag_217\n        /* \"#utility.yul\":8083:8090   */\n      dup6\n        /* \"#utility.yul\":8074:8080   */\n      dup3\n        /* \"#utility.yul\":8063:8072   */\n      dup7\n        /* \"#utility.yul\":8059:8081   */\n      add\n        /* \"#utility.yul\":8028:8091   */\n      tag_84\n      jump\t// in\n    tag_217:\n        /* \"#utility.yul\":8018:8091   */\n      swap3\n      pop\n        /* \"#utility.yul\":7814:8101   */\n      pop\n        /* \"#utility.yul\":8140:8142   */\n      0x20\n        /* \"#utility.yul\":8166:8219   */\n      tag_218\n        /* \"#utility.yul\":8211:8218   */\n      dup6\n        /* \"#utility.yul\":8202:8208   */\n      dup3\n        /* \"#utility.yul\":8191:8200   */\n      dup7\n        /* \"#utility.yul\":8187:8209   */\n      add\n        /* \"#utility.yul\":8166:8219   */\n      tag_87\n      jump\t// in\n    tag_218:\n        /* \"#utility.yul\":8156:8219   */\n      swap2\n      pop\n        /* \"#utility.yul\":8111:8229   */\n      pop\n        /* \"#utility.yul\":7582:8236   */\n      swap3\n      pop\n      swap3\n      swap1\n      pop\n      jump\t// out\n        /* \"#utility.yul\":8242:8411   */\n    tag_96:\n        /* \"#utility.yul\":8326:8337   */\n      0x00\n        /* \"#utility.yul\":8360:8366   */\n      dup3\n        /* \"#utility.yul\":8355:8358   */\n      dup3\n        /* \"#utility.yul\":8348:8367   */\n      mstore\n        /* \"#utility.yul\":8400:8404   */\n      0x20\n        /* \"#utility.yul\":8395:8398   */\n      dup3\n        /* \"#utility.yul\":8391:8405   */\n      add\n        /* \"#utility.yul\":8376:8405   */\n      swap1\n      pop\n        /* \"#utility.yul\":8242:8411   */\n      swap3\n      swap2\n      pop\n      pop\n      jump\t// out\n        /* \"#utility.yul\":8417:8646   */\n    tag_97:\n        /* \"#utility.yul\":8557:8591   */\n      0x4f6e6c7920746865206f7267616e697365722063616e20726567697374657220\n        /* \"#utility.yul\":8553:8554   */\n      0x00\n        /* \"#utility.yul\":8545:8551   */\n      dup3\n        /* \"#utility.yul\":8541:8555   */\n      add\n        /* \"#utility.yul\":8534:8592   */\n      mstore\n        /* \"#utility.yul\":8626:8638   */\n      0x63616e6469646174657300000000000000000000000000000000000000000000\n        /* \"#utility.yul\":8621:8623   */\n      0x20\n        /* \"#utility.yul\":8613:8619   */\n      dup3\n        /* \"#utility.yul\":8609:8624   */\n      add\n        /* \"#utility.yul\":8602:8639   */\n      mstore\n        /* \"#utility.yul\":8417:8646   */\n      pop\n      jump\t// out\n        /* \"#utility.yul\":8652:9018   */\n    tag_98:\n        /* \"#utility.yul\":8794:8797   */\n      0x00\n        /* \"#utility.yul\":8815:8882   */\n      tag_222\n        /* \"#utility.yul\":8879:8881   */\n      0x2a\n        /* \"#utility.yul\":8874:8877   */\n      dup4\n        /* \"#utility.yul\":8815:8882   */\n      tag_96\n      jump\t// in\n    tag_222:\n        /* \"#utility.yul\":8808:8882   */\n      swap2\n      pop\n        /* \"#utility.yul\":8891:8984   */\n      tag_223\n        /* \"#utility.yul\":8980:8983   */\n      dup3\n        /* \"#utility.yul\":8891:8984   */\n      tag_97\n      jump\t// in\n    tag_223:\n        /* \"#utility.yul\":9009:9011   */\n      0x40\n        /* \"#utility.yul\":9004:9007   */\n      dup3\n        /* \"#utility.yul\":9000:9012   */\n      add\n        /* \"#utility.yul\":8993:9012   */\n      swap1\n      pop\n        /* \"#utility.yul\":8652:9018   */\n      swap2\n      swap1\n      pop\n      jump\t// out\n        /* \"#utility.yul\":9024:9443   */\n    tag_37:\n        /* \"#utility.yul\":9190:9194   */\n      0x00\n        /* \"#utility.yul\":9228:9230   */\n      0x20\n        /* \"#utility.yul\":9217:9226   */\n      dup3\n        /* \"#utility.yul\":9213:9231   */\n      add\n        /* \"#utility.yul\":9205:9231   */\n      swap1\n      pop\n        /* \"#utility.yul\":9277:9286   */\n      dup2\n        /* \"#utility.yul\":9271:9275   */\n      dup2\n        /* \"#utility.yul\":9267:9287   */\n      sub\n        /* \"#utility.yul\":9263:9264   */\n      0x00\n        /* \"#utility.yul\":9252:9261   */\n      dup4\n        /* \"#utility.yul\":9248:9265   */\n      add\n        /* \"#utility.yul\":9241:9288   */\n      mstore\n        /* \"#utility.yul\":9305:9436   */\n      tag_225\n        /* \"#utility.yul\":9431:9435   */\n      dup2\n        /* \"#utility.yul\":9305:9436   */\n      tag_98\n      jump\t// in\n    tag_225:\n        /* \"#utility.yul\":9297:9436   */\n      swap1\n      pop\n        /* \"#utility.yul\":9024:9443   */\n      swap2\n      swap1\n      pop\n      jump\t// out\n        /* \"#utility.yul\":9449:9548   */\n    tag_99:\n        /* \"#utility.yul\":9501:9507   */\n      0x00\n        /* \"#utility.yul\":9535:9540   */\n      dup2\n        /* \"#utility.yul\":9529:9541   */\n      mload\n        /* \"#utility.yul\":9519:9541   */\n      swap1\n      pop\n        /* \"#utility.yul\":9449:9548   */\n      swap2\n      swap1\n      pop\n      jump\t// out\n        /* \"#utility.yul\":9554:9734   */\n    tag_100:\n        /* \"#utility.yul\":9602:9679   */\n      0x4e487b7100000000000000000000000000000000000000000000000000000000\n        /* \"#utility.yul\":9599:9600   */\n      0x00\n        /* \"#utility.yul\":9592:9680   */\n      mstore\n        /* \"#utility.yul\":9699:9703   */\n      0x22\n        /* \"#utility.yul\":9696:9697   */\n      0x04\n        /* \"#utility.yul\":9689:9704   */\n      mstore\n        /* \"#utility.yul\":9723:9727   */\n      0x24\n        /* \"#utility.yul\":9720:9721   */\n      0x00\n        /* \"#utility.yul\":9713:9728   */\n      revert\n        /* \"#utility.yul\":9740:10060   */\n    tag_101:\n        /* \"#utility.yul\":9784:9790   */\n      0x00\n        /* \"#utility.yul\":9821:9822   */\n      0x02\n        /* \"#utility.yul\":9815:9819   */\n      dup3\n        /* \"#utility.yul\":9811:9823   */\n      div\n        /* \"#utility.yul\":9801:9823   */\n      swap1\n      pop\n        /* \"#utility.yul\":9868:9869   */\n      0x01\n        /* \"#utility.yul\":9862:9866   */\n      dup3\n        /* \"#utility.yul\":9858:9870   */\n      and\n        /* \"#utility.yul\":9889:9907   */\n      dup1\n        /* \"#utility.yul\":9879:9960   */\n      tag_229\n      jumpi\n        /* \"#utility.yul\":9945:9949   */\n      0x7f\n        /* \"#utility.yul\":9937:9943   */\n      dup3\n        /* \"#utility.yul\":9933:9950   */\n      and\n        /* \"#utility.yul\":9923:9950   */\n      swap2\n      pop\n        /* \"#utility.yul\":9879:9960   */\n    tag_229:\n        /* \"#utility.yul\":10007:10009   */\n      0x20\n        /* \"#utility.yul\":9999:10005   */\n      dup3\n        /* \"#utility.yul\":9996:10010   */\n      lt\n        /* \"#utility.yul\":9976:9994   */\n      dup2\n        /* \"#utility.yul\":9973:10011   */\n      sub\n        /* \"#utility.yul\":9970:10054   */\n      tag_230\n      jumpi\n        /* \"#utility.yul\":10026:10044   */\n      tag_231\n      tag_100\n      jump\t// in\n    tag_231:\n        /* \"#utility.yul\":9970:10054   */\n    tag_230:\n        /* \"#utility.yul\":9791:10060   */\n      pop\n        /* \"#utility.yul\":9740:10060   */\n      swap2\n      swap1\n      pop\n      jump\t// out\n        /* \"#utility.yul\":10066:10207   */\n    tag_102:\n        /* \"#utility.yul\":10115:10119   */\n      0x00\n        /* \"#utility.yul\":10138:10141   */\n      dup2\n        /* \"#utility.yul\":10130:10141   */\n      swap1\n      pop\n        /* \"#utility.yul\":10161:10164   */\n      dup2\n        /* \"#utility.yul\":10158:10159   */\n      0x00\n        /* \"#utility.yul\":10151:10165   */\n      mstore\n        /* \"#utility.yul\":10195:10199   */\n      0x20\n        /* \"#utility.yul\":10192:10193   */\n      0x00\n        /* \"#utility.yul\":10182:10200   */\n      keccak256\n        /* \"#utility.yul\":10174:10200   */\n      swap1\n      pop\n        /* \"#utility.yul\":10066:10207   */\n      swap2\n      swap1\n      pop\n      jump\t// out\n        /* \"#utility.yul\":10213:10306   */\n    tag_103:\n        /* \"#utility.yul\":10250:10256   */\n      0x00\n        /* \"#utility.yul\":10297:10299   */\n      0x20\n        /* \"#utility.yul\":10292:10294   */\n      0x1f\n        /* \"#utility.yul\":10285:10290   */\n      dup4\n        /* \"#utility.yul\":10281:10295   */\n      add\n        /* \"#utility.yul\":10277:10300   */\n      div\n        /* \"#utility.yul\":10267:10300   */\n      swap1\n      pop\n        /* \"#utility.yul\":10213:10306   */\n      swap2\n      swap1\n      pop\n      jump\t// out\n        /* \"#utility.yul\":10312:10419   */\n    tag_104:\n        /* \"#utility.yul\":10356:10364   */\n      0x00\n        /* \"#utility.yul\":10406:10411   */\n      dup3\n        /* \"#utility.yul\":10400:10404   */\n      dup3\n        /* \"#utility.yul\":10396:10412   */\n      shl\n        /* \"#utility.yul\":10375:10412   */\n      swap1\n      pop\n        /* \"#utility.yul\":10312:10419   */\n      swap3\n      swap2\n      pop\n      pop\n      jump\t// out\n        /* \"#utility.yul\":10425:10818   */\n    tag_105:\n        /* \"#utility.yul\":10494:10500   */\n      0x00\n        /* \"#utility.yul\":10544:10545   */\n      0x08\n        /* \"#utility.yul\":10532:10542   */\n      dup4\n        /* \"#utility.yul\":10528:10546   */\n      mul\n        /* \"#utility.yul\":10567:10664   */\n      tag_236\n        /* \"#utility.yul\":10597:10663   */\n      0xffffffffffffffffffffffffffffffffffffffffffffffffffffffffffffffff\n        /* \"#utility.yul\":10586:10595   */\n      dup3\n        /* \"#utility.yul\":10567:10664   */\n      tag_104\n      jump\t// in\n    tag_236:\n        /* \"#utility.yul\":10685:10724   */\n      tag_237\n        /* \"#utility.yul\":10715:10723   */\n      dup7\n        /* \"#utility.yul\":10704:10713   */\n      dup4\n        /* \"#utility.yul\":10685:10724   */\n      tag_104\n      jump\t// in\n    tag_237:\n        /* \"#utility.yul\":10673:10724   */\n      swap6\n      pop\n        /* \"#utility.yul\":10757:10761   */\n      dup1\n        /* \"#utility.yul\":10753:10762   */\n      not\n        /* \"#utility.yul\":10746:10751   */\n      dup5\n        /* \"#utility.yul\":10742:10763   */\n      and\n        /* \"#utility.yul\":10733:10763   */\n      swap4\n      pop\n        /* \"#utility.yul\":10806:10810   */\n      dup1\n        /* \"#utility.yul\":10796:10804   */\n      dup7\n        /* \"#utility.yul\":10792:10811   */\n      and\n        /* \"#utility.yul\":10785:10790   */\n      dup5\n        /* \"#utility.yul\":10782:10812   */\n      or\n        /* \"#utility.yul\":10772:10812   */\n      swap3\n      pop\n        /* \"#utility.yul\":10501:10818   */\n      pop\n      pop\n        /* \"#utility.yul\":10425:10818   */\n      swap4\n      swap3\n      pop\n      pop\n      pop\n      jump\t// out\n        /* \"#utility.yul\":10824:10884   */\n    tag_106:\n        /* \"#utility.yul\":10852:10855   */\n      0x00\n        /* \"#utility.yul\":10873:10878   */\n      dup2\n        /* \"#utility.yul\":10866:10878   */\n      swap1\n      pop\n        /* \"#utility.yul\":10824:10884   */\n      swap2\n      swap1\n      pop\n      jump\t// out\n        /* \"#utility.yul\":10890:11032   */\n    tag_107:\n        /* \"#utility.yul\":10940:10949   */\n      0x00\n        /* \"#utility.yul\":10973:11026   */\n      tag_240\n        /* \"#utility.yul\":10991:11025   */\n      tag_241\n        /* \"#utility.yul\":11000:11024   */\n      tag_242\n        /* \"#utility.yul\":11018:11023   */\n      dup5\n        /* \"#utility.yul\":11000:11024   */\n      tag_85\n      jump\t// in\n    tag_242:\n        /* \"#utility.yul\":10991:11025   */\n      tag_106\n      jump\t// in\n    tag_241:\n        /* \"#utility.yul\":10973:11026   */\n      tag_85\n      jump\t// in\n    tag_240:\n        /* \"#utility.yul\":10960:11026   */\n      swap1\n      pop\n        /* \"#utility.yul\":10890:11032   */\n      swap2\n      swap1\n      pop\n      jump\t// out\n        /* \"#utility.yul\":11038:11113   */\n    tag_108:\n        /* \"#utility.yul\":11081:11084   */\n      0x00\n        /* \"#utility.yul\":11102:11107   */\n      dup2\n        /* \"#utility.yul\":11095:11107   */\n      swap1\n      pop\n        /* \"#utility.yul\":11038:11113   */\n      swap2\n      swap1\n      pop\n      jump\t// out\n        /* \"#utility.yul\":11119:11388   */\n    tag_109:\n        /* \"#utility.yul\":11229:11268   */\n      tag_245\n        /* \"#utility.yul\":11260:11267   */\n      dup4\n        /* \"#utility.yul\":11229:11268   */\n      tag_107\n      jump\t// in\n    tag_245:\n        /* \"#utility.yul\":11290:11381   */\n      tag_246\n        /* \"#utility.yul\":11339:11380   */\n      tag_247\n        /* \"#utility.yul\":11363:11379   */\n      dup3\n        /* \"#utility.yul\":11339:11380   */\n      tag_108\n      jump\t// in\n    tag_247:\n        /* \"#utility.yul\":11331:11337   */\n      dup5\n        /* \"#utility.yul\":11324:11328   */\n      dup5\n        /* \"#utility.yul\":11318:11329   */\n      sload\n        /* \"#utility.yul\":11290:11381   */\n      tag_105\n      jump\t// in\n    tag_246:\n        /* \"#utility.yul\":11284:11288   */\n      dup3\n        /* \"#utility.yul\":11277:11382   */\n      sstore\n        /* \"#utility.yul\":11195:11388   */\n      pop\n        /* \"#utility.yul\":11119:11388   */\n      pop\n      pop\n      pop\n      jump\t// out\n        /* \"#utility.yul\":11394:11467   */\n    tag_110:\n        /* \"#utility.yul\":11439:11442   */\n      0x00\n        /* \"#utility.yul\":11394:11467   */\n      swap1\n      jump\t// out\n        /* \"#utility.yul\":11473:11662   */\n    tag_111:\n        /* \"#utility.yul\":11550:11582   */\n      tag_250\n      tag_110\n      jump\t// in\n    tag_250:\n        /* \"#utility.yul\":11591:11656   */\n      tag_251\n        /* \"#utility.yul\":11649:11655   */\n      dup2\n        /* \"#utility.yul\":11641:11647   */\n      dup5\n        /* \"#utility.yul\":11635:11639   */\n      dup5\n        /* \"#utility.yul\":11591:11656   */\n      tag_109\n      jump\t// in\n    tag_251:\n        /* \"#utility.yul\":11526:11662   */\n      pop\n        /* \"#utility.yul\":11473:11662   */\n      pop\n      pop\n      jump\t// out\n        /* \"#utility.yul\":11668:11854   */\n    tag_112:\n        /* \"#utility.yul\":11728:11848   */\n    tag_253:\n        /* \"#utility.yul\":11745:11748   */\n      dup2\n        /* \"#utility.yul\":11738:11743   */\n      dup2\n        /* \"#utility.yul\":11735:11749   */\n      lt\n        /* \"#utility.yul\":11728:11848   */\n      iszero\n      tag_255\n      jumpi\n        /* \"#utility.yul\":11799:11838   */\n      tag_256\n        /* \"#utility.yul\":11836:11837   */\n      0x00\n        /* \"#utility.yul\":11829:11834   */\n      dup3\n        /* \"#utility.yul\":11799:11838   */\n      tag_111\n      jump\t// in\n    tag_256:\n        /* \"#utility.yul\":11772:11773   */\n      0x01\n        /* \"#utility.yul\":11765:11770   */\n      dup2\n        /* \"#utility.yul\":11761:11774   */\n      add\n        /* \"#utility.yul\":11752:11774   */\n      swap1\n      pop\n        /* \"#utility.yul\":11728:11848   */\n      jump(tag_253)\n    tag_255:\n        /* \"#utility.yul\":11668:11854   */\n      pop\n      pop\n      jump\t// out\n        /* \"#utility.yul\":11860:12403   */\n    tag_113:\n        /* \"#utility.yul\":11961:11963   */\n      0x1f\n        /* \"#utility.yul\":11956:11959   */\n      dup3\n        /* \"#utility.yul\":11953:11964   */\n      gt\n        /* \"#utility.yul\":11950:12396   */\n      iszero\n      tag_258\n      jumpi\n        /* \"#utility.yul\":11995:12033   */\n      tag_259\n        /* \"#utility.yul\":12027:12032   */\n      dup2\n        /* \"#utility.yul\":11995:12033   */\n      tag_102\n      jump\t// in\n    tag_259:\n        /* \"#utility.yul\":12079:12108   */\n      tag_260\n        /* \"#utility.yul\":12097:12107   */\n      dup5\n        /* \"#utility.yul\":12079:12108   */\n      tag_103\n      jump\t// in\n    tag_260:\n        /* \"#utility.yul\":12069:12077   */\n      dup2\n        /* \"#utility.yul\":12065:12109   */\n      add\n        /* \"#utility.yul\":12262:12264   */\n      0x20\n        /* \"#utility.yul\":12250:12260   */\n      dup6\n        /* \"#utility.yul\":12247:12265   */\n      lt\n        /* \"#utility.yul\":12244:12293   */\n      iszero\n      tag_261\n      jumpi\n        /* \"#utility.yul\":12283:12291   */\n      dup2\n        /* \"#utility.yul\":12268:12291   */\n      swap1\n      pop\n        /* \"#utility.yul\":12244:12293   */\n    tag_261:\n        /* \"#utility.yul\":12306:12386   */\n      tag_262\n        /* \"#utility.yul\":12362:12384   */\n      tag_263\n        /* \"#utility.yul\":12380:12383   */\n      dup6\n        /* \"#utility.yul\":12362:12384   */\n      tag_103\n      jump\t// in\n    tag_263:\n        /* \"#utility.yul\":12352:12360   */\n      dup4\n        /* \"#utility.yul\":12348:12385   */\n      add\n        /* \"#utility.yul\":12335:12346   */\n      dup3\n        /* \"#utility.yul\":12306:12386   */\n      tag_112\n      jump\t// in\n    tag_262:\n        /* \"#utility.yul\":11965:12396   */\n      pop\n      pop\n        /* \"#utility.yul\":11950:12396   */\n    tag_258:\n        /* \"#utility.yul\":11860:12403   */\n      pop\n      pop\n      pop\n      jump\t// out\n        /* \"#utility.yul\":12409:12526   */\n    tag_114:\n        /* \"#utility.yul\":12463:12471   */\n      0x00\n        /* \"#utility.yul\":12513:12518   */\n      dup3\n        /* \"#utility.yul\":12507:12511   */\n      dup3\n        /* \"#utility.yul\":12503:12519   */\n      shr\n        /* \"#utility.yul\":12482:12519   */\n      swap1\n      pop\n        /* \"#utility.yul\":12409:12526   */\n      swap3\n      swap2\n      pop\n      pop\n      jump\t// out\n        /* \"#utility.yul\":12532:12701   */\n    tag_115:\n        /* \"#utility.yul\":12576:12582   */\n      0x00\n        /* \"#utility.yul\":12609:12660   */\n      tag_266\n        /* \"#utility.yul\":12657:12658   */\n      0x00\n        /* \"#utility.yul\":12653:12659   */\n      not\n        /* \"#utility.yul\":12645:12650   */\n      dup5\n        /* \"#utility.yul\":12642:12643   */\n      0x08\n        /* \"#utility.yul\":12638:12651   */\n      mul\n        /* \"#utility.yul\":12609:12660   */\n      tag_114\n      jump\t// in\n    tag_266:\n        /* \"#utility.yul\":12605:12661   */\n      not\n        /* \"#utility.yul\":12690:12694   */\n      dup1\n        /* \"#utility.yul\":12684:12688   */\n      dup4\n        /* \"#utility.yul\":12680:12695   */\n      and\n        /* \"#utility.yul\":12670:12695   */\n      swap2\n      pop\n        /* \"#utility.yul\":12583:12701   */\n      pop\n        /* \"#utility.yul\":12532:12701   */\n      swap3\n      swap2\n      pop\n      pop\n      jump\t// out\n        /* \"#utility.yul\":12706:13001   */\n    tag_116:\n        /* \"#utility.yul\":12782:12786   */\n      0x00\n        /* \"#utility.yul\":12928:12957   */\n      tag_268\n        /* \"#utility.yul\":12953:12956   */\n      dup4\n        /* \"#utility.yul\":12947:12951   */\n      dup4\n        /* \"#utility.yul\":12928:12957   */\n      tag_115\n      jump\t// in\n    tag_268:\n        /* \"#utility.yul\":12920:12957   */\n      swap2\n      pop\n        /* \"#utility.yul\":12990:12993   */\n      dup3\n        /* \"#utility.yul\":12987:12988   */\n      0x02\n        /* \"#utility.yul\":12983:12994   */\n      mul\n        /* \"#utility.yul\":12977:12981   */\n      dup3\n        /* \"#utility.yul\":12974:12995   */\n      or\n        /* \"#utility.yul\":12966:12995   */\n      swap1\n      pop\n        /* \"#utility.yul\":12706:13001   */\n      swap3\n      swap2\n      pop\n      pop\n      jump\t// out\n        /* \"#utility.yul\":13006:14401   */\n    tag_40:\n        /* \"#utility.yul\":13123:13160   */\n      tag_270\n        /* \"#utility.yul\":13156:13159   */\n      dup3\n        /* \"#utility.yul\":13123:13160   */\n      tag_99\n      jump\t// in\n    tag_270:\n        /* \"#utility.yul\":13225:13243   */\n      0xffffffffffffffff\n        /* \"#utility.yul\":13217:13223   */\n      dup2\n        /* \"#utility.yul\":13214:13244   */\n      gt\n        /* \"#utility.yul\":13211:13267   */\n      iszero\n      tag_271\n      jumpi\n        /* \"#utility.yul\":13247:13265   */\n      tag_272\n      tag_78\n      jump\t// in\n    tag_272:\n        /* \"#utility.yul\":13211:13267   */\n    tag_271:\n        /* \"#utility.yul\":13291:13329   */\n      tag_273\n        /* \"#utility.yul\":13323:13327   */\n      dup3\n        /* \"#utility.yul\":13317:13328   */\n      sload\n        /* \"#utility.yul\":13291:13329   */\n      tag_101\n      jump\t// in\n    tag_273:\n        /* \"#utility.yul\":13376:13443   */\n      tag_274\n        /* \"#utility.yul\":13436:13442   */\n      dup3\n        /* \"#utility.yul\":13428:13434   */\n      dup3\n        /* \"#utility.yul\":13422:13426   */\n      dup6\n        /* \"#utility.yul\":13376:13443   */\n      tag_113\n      jump\t// in\n    tag_274:\n        /* \"#utility.yul\":13470:13471   */\n      0x00\n        /* \"#utility.yul\":13494:13498   */\n      0x20\n        /* \"#utility.yul\":13481:13498   */\n      swap1\n      pop\n        /* \"#utility.yul\":13526:13528   */\n      0x1f\n        /* \"#utility.yul\":13518:13524   */\n      dup4\n        /* \"#utility.yul\":13515:13529   */\n      gt\n        /* \"#utility.yul\":13543:13544   */\n      0x01\n        /* \"#utility.yul\":13538:14156   */\n      dup2\n      eq\n      tag_276\n      jumpi\n        /* \"#utility.yul\":14200:14201   */\n      0x00\n        /* \"#utility.yul\":14217:14223   */\n      dup5\n        /* \"#utility.yul\":14214:14291   */\n      iszero\n      tag_277\n      jumpi\n        /* \"#utility.yul\":14266:14275   */\n      dup3\n        /* \"#utility.yul\":14261:14264   */\n      dup8\n        /* \"#utility.yul\":14257:14276   */\n      add\n        /* \"#utility.yul\":14251:14277   */\n      mload\n        /* \"#utility.yul\":14242:14277   */\n      swap1\n      pop\n        /* \"#utility.yul\":14214:14291   */\n    tag_277:\n        /* \"#utility.yul\":14317:14384   */\n      tag_278\n        /* \"#utility.yul\":14377:14383   */\n      dup6\n        /* \"#utility.yul\":14370:14375   */\n      dup3\n        /* \"#utility.yul\":14317:14384   */\n      tag_116\n      jump\t// in\n    tag_278:\n        /* \"#utility.yul\":14311:14315   */\n      dup7\n        /* \"#utility.yul\":14304:14385   */\n      sstore\n        /* \"#utility.yul\":14173:14395   */\n      pop\n        /* \"#utility.yul\":13508:14395   */\n      jump(tag_275)\n        /* \"#utility.yul\":13538:14156   */\n    tag_276:\n        /* \"#utility.yul\":13590:13594   */\n      0x1f\n        /* \"#utility.yul\":13586:13595   */\n      not\n        /* \"#utility.yul\":13578:13584   */\n      dup5\n        /* \"#utility.yul\":13574:13596   */\n      and\n        /* \"#utility.yul\":13624:13661   */\n      tag_279\n        /* \"#utility.yul\":13656:13660   */\n      dup7\n        /* \"#utility.yul\":13624:13661   */\n      tag_102\n      jump\t// in\n    tag_279:\n        /* \"#utility.yul\":13683:13684   */\n      0x00\n        /* \"#utility.yul\":13697:13905   */\n    tag_280:\n        /* \"#utility.yul\":13711:13718   */\n      dup3\n        /* \"#utility.yul\":13708:13709   */\n      dup2\n        /* \"#utility.yul\":13705:13719   */\n      lt\n        /* \"#utility.yul\":13697:13905   */\n      iszero\n      tag_282\n      jumpi\n        /* \"#utility.yul\":13790:13799   */\n      dup5\n        /* \"#utility.yul\":13785:13788   */\n      dup10\n        /* \"#utility.yul\":13781:13800   */\n      add\n        /* \"#utility.yul\":13775:13801   */\n      mload\n        /* \"#utility.yul\":13767:13773   */\n      dup3\n        /* \"#utility.yul\":13760:13802   */\n      sstore\n        /* \"#utility.yul\":13841:13842   */\n      0x01\n        /* \"#utility.yul\":13833:13839   */\n      dup3\n        /* \"#utility.yul\":13829:13843   */\n      add\n        /* \"#utility.yul\":13819:13843   */\n      swap2\n      pop\n        /* \"#utility.yul\":13888:13890   */\n      0x20\n        /* \"#utility.yul\":13877:13886   */\n      dup6\n        /* \"#utility.yul\":13873:13891   */\n      add\n        /* \"#utility.yul\":13860:13891   */\n      swap5\n      pop\n        /* \"#utility.yul\":13734:13738   */\n      0x20\n        /* \"#utility.yul\":13731:13732   */\n      dup2\n        /* \"#utility.yul\":13727:13739   */\n      add\n        /* \"#utility.yul\":13722:13739   */\n      swap1\n      pop\n        /* \"#utility.yul\":13697:13905   */\n      jump(tag_280)\n    tag_282:\n        /* \"#utility.yul\":13933:13939   */\n      dup7\n        /* \"#utility.yul\":13924:13931   */\n      dup4\n        /* \"#utility.yul\":13921:13940   */\n      lt\n        /* \"#utility.yul\":13918:14097   */\n      iszero\n      tag_283\n      jumpi\n        /* \"#utility.yul\":13991:14000   */\n      dup5\n        /* \"#utility.yul\":13986:13989   */\n      dup10\n        /* \"#utility.yul\":13982:14001   */\n      add\n        /* \"#utility.yul\":13976:14002   */\n      mload\n        /* \"#utility.yul\":14034:14082   */\n      tag_284\n        /* \"#utility.yul\":14076:14080   */\n      0x1f\n        /* \"#utility.yul\":14068:14074   */\n      dup10\n        /* \"#utility.yul\":14064:14081   */\n      and\n        /* \"#utility.yul\":14053:14062   */\n      dup3\n        /* \"#utility.yul\":14034:14082   */\n      tag_115\n      jump\t// in\n    tag_284:\n        /* \"#utility.yul\":14026:14032   */\n      dup4\n        /* \"#utility.yul\":14019:14083   */\n      sstore\n        /* \"#utility.yul\":13941:14097   */\n      pop\n        /* \"#utility.yul\":13918:14097   */\n    tag_283:\n        /* \"#utility.yul\":14143:14144   */\n      0x01\n        /* \"#utility.yul\":14139:14140   */\n      0x02\n        /* \"#utility.yul\":14131:14137   */\n      dup9\n        /* \"#utility.yul\":14127:14141   */\n      mul\n        /* \"#utility.yul\":14123:14145   */\n      add\n        /* \"#utility.yul\":14117:14121   */\n      dup9\n        /* \"#utility.yul\":14110:14146   */\n      sstore\n        /* \"#utility.yul\":13545:14156   */\n      pop\n      pop\n      pop\n        /* \"#utility.yul\":13508:14395   */\n    tag_275:\n      pop\n        /* \"#utility.yul\":13098:14401   */\n      pop\n      pop\n      pop\n        /* \"#utility.yul\":13006:14401   */\n      pop\n      pop\n      jump\t// out\n        /* \"#utility.yul\":14407:14587   */\n    tag_117:\n        /* \"#utility.yul\":14455:14532   */\n      0x4e487b7100000000000000000000000000000000000000000000000000000000\n        /* \"#utility.yul\":14452:14453   */\n      0x00\n        /* \"#utility.yul\":14445:14533   */\n      mstore\n        /* \"#utility.yul\":14552:14556   */\n      0x11\n        /* \"#utility.yul\":14549:14550   */\n      0x04\n        /* \"#utility.yul\":14542:14557   */\n      mstore\n        /* \"#utility.yul\":14576:14580   */\n      0x24\n        /* \"#utility.yul\":14573:14574   */\n      0x00\n        /* \"#utility.yul\":14566:14581   */\n      revert\n        /* \"#utility.yul\":14593:14826   */\n    tag_44:\n        /* \"#utility.yul\":14632:14635   */\n      0x00\n        /* \"#utility.yul\":14655:14679   */\n      tag_287\n        /* \"#utility.yul\":14673:14678   */\n      dup3\n        /* \"#utility.yul\":14655:14679   */\n      tag_85\n      jump\t// in\n    tag_287:\n        /* \"#utility.yul\":14646:14679   */\n      swap2\n      pop\n        /* \"#utility.yul\":14701:14767   */\n      0xffffffffffffffffffffffffffffffffffffffffffffffffffffffffffffffff\n        /* \"#utility.yul\":14694:14699   */\n      dup3\n        /* \"#utility.yul\":14691:14768   */\n      sub\n        /* \"#utility.yul\":14688:14791   */\n      tag_288\n      jumpi\n        /* \"#utility.yul\":14771:14789   */\n      tag_289\n      tag_117\n      jump\t// in\n    tag_289:\n        /* \"#utility.yul\":14688:14791   */\n    tag_288:\n        /* \"#utility.yul\":14818:14819   */\n      0x01\n        /* \"#utility.yul\":14811:14816   */\n      dup3\n        /* \"#utility.yul\":14807:14820   */\n      add\n        /* \"#utility.yul\":14800:14820   */\n      swap1\n      pop\n        /* \"#utility.yul\":14593:14826   */\n      swap2\n      swap1\n      pop\n      jump\t// out\n        /* \"#utility.yul\":14832:15001   */\n    tag_118:\n        /* \"#utility.yul\":14972:14993   */\n      0x596f7520617265206e6f74206120766f74657200000000000000000000000000\n        /* \"#utility.yul\":14968:14969   */\n      0x00\n        /* \"#utility.yul\":14960:14966   */\n      dup3\n        /* \"#utility.yul\":14956:14970   */\n      add\n        /* \"#utility.yul\":14949:14994   */\n      mstore\n        /* \"#utility.yul\":14832:15001   */\n      pop\n      jump\t// out\n        /* \"#utility.yul\":15007:15373   */\n    tag_119:\n        /* \"#utility.yul\":15149:15152   */\n      0x00\n        /* \"#utility.yul\":15170:15237   */\n      tag_292\n        /* \"#utility.yul\":15234:15236   */\n      0x13\n        /* \"#utility.yul\":15229:15232   */\n      dup4\n        /* \"#utility.yul\":15170:15237   */\n      tag_96\n      jump\t// in\n    tag_292:\n        /* \"#utility.yul\":15163:15237   */\n      swap2\n      pop\n        /* \"#utility.yul\":15246:15339   */\n      tag_293\n        /* \"#utility.yul\":15335:15338   */\n      dup3\n        /* \"#utility.yul\":15246:15339   */\n      tag_118\n      jump\t// in\n    tag_293:\n        /* \"#utility.yul\":15364:15366   */\n      0x20\n        /* \"#utility.yul\":15359:15362   */\n      dup3\n        /* \"#utility.yul\":15355:15367   */\n      add\n        /* \"#utility.yul\":15348:15367   */\n      swap1\n      pop\n        /* \"#utility.yul\":15007:15373   */\n      swap2\n      swap1\n      pop\n      jump\t// out\n        /* \"#utility.yul\":15379:15798   */\n    tag_49:\n        /* \"#utility.yul\":15545:15549   */\n      0x00\n        /* \"#utility.yul\":15583:15585   */\n      0x20\n        /* \"#utility.yul\":15572:15581   */\n      dup3\n        /* \"#utility.yul\":15568:15586   */\n      add\n        /* \"#utility.yul\":15560:15586   */\n      swap1\n      pop\n        /* \"#utility.yul\":15632:15641   */\n      dup2\n        /* \"#utility.yul\":15626:15630   */\n      dup2\n        /* \"#utility.yul\":15622:15642   */\n      sub\n        /* \"#utility.yul\":15618:15619   */\n      0x00\n        /* \"#utility.yul\":15607:15616   */\n      dup4\n        /* \"#utility.yul\":15603:15620   */\n      add\n        /* \"#utility.yul\":15596:15643   */\n      mstore\n        /* \"#utility.yul\":15660:15791   */\n      tag_295\n        /* \"#utility.yul\":15786:15790   */\n      dup2\n        /* \"#utility.yul\":15660:15791   */\n      tag_119\n      jump\t// in\n    tag_295:\n        /* \"#utility.yul\":15652:15791   */\n      swap1\n      pop\n        /* \"#utility.yul\":15379:15798   */\n      swap2\n      swap1\n      pop\n      jump\t// out\n        /* \"#utility.yul\":15804:15976   */\n    tag_120:\n        /* \"#utility.yul\":15944:15968   */\n      0x596f75206861766520616c726561647920766f74656400000000000000000000\n        /* \"#utility.yul\":15940:15941   */\n      0x00\n        /* \"#utility.yul\":15932:15938   */\n      dup3\n        /* \"#utility.yul\":15928:15942   */\n      add\n        /* \"#utility.yul\":15921:15969   */\n      mstore\n        /* \"#utility.yul\":15804:15976   */\n      pop\n      jump\t// out\n        /* \"#utility.yul\":15982:16348   */\n    tag_121:\n        /* \"#utility.yul\":16124:16127   */\n      0x00\n        /* \"#utility.yul\":16145:16212   */\n      tag_298\n        /* \"#utility.yul\":16209:16211   */\n      0x16\n        /* \"#utility.yul\":16204:16207   */\n      dup4\n        /* \"#utility.yul\":16145:16212   */\n      tag_96\n      jump\t// in\n    tag_298:\n        /* \"#utility.yul\":16138:16212   */\n      swap2\n      pop\n        /* \"#utility.yul\":16221:16314   */\n      tag_299\n        /* \"#utility.yul\":16310:16313   */\n      dup3\n        /* \"#utility.yul\":16221:16314   */\n      tag_120\n      jump\t// in\n    tag_299:\n        /* \"#utility.yul\":16339:16341   */\n      0x20\n        /* \"#utility.yul\":16334:16337   */\n      dup3\n        /* \"#utility.yul\":16330:16342   */\n      add\n        /* \"#utility.yul\":16323:16342   */\n      swap1\n      pop\n        /* \"#utility.yul\":15982:16348   */\n      swap2\n      swap1\n      pop\n      jump\t// out\n        /* \"#utility.yul\":16354:16773   */\n    tag_52:\n        /* \"#utility.yul\":16520:16524   */\n      0x00\n        /* \"#utility.yul\":16558:16560   */\n      0x20\n        /* \"#utility.yul\":16547:16556   */\n      dup3\n        /* \"#utility.yul\":16543:16561   */\n      add\n        /* \"#utility.yul\":16535:16561   */\n      swap1\n      pop\n        /* \"#utility.yul\":16607:16616   */\n      dup2\n        /* \"#utility.yul\":16601:16605   */\n      dup2\n        /* \"#utility.yul\":16597:16617   */\n      sub\n        /* \"#utility.yul\":16593:16594   */\n      0x00\n        /* \"#utility.yul\":16582:16591   */\n      dup4\n        /* \"#utility.yul\":16578:16595   */\n      add\n        /* \"#utility.yul\":16571:16618   */\n      mstore\n        /* \"#utility.yul\":16635:16766   */\n      tag_301\n        /* \"#utility.yul\":16761:16765   */\n      dup2\n        /* \"#utility.yul\":16635:16766   */\n      tag_121\n      jump\t// in\n    tag_301:\n        /* \"#utility.yul\":16627:16766   */\n      swap1\n      pop\n        /* \"#utility.yul\":16354:16773   */\n      swap2\n      swap1\n      pop\n      jump\t// out\n        /* \"#utility.yul\":16779:16970   */\n    tag_54:\n        /* \"#utility.yul\":16819:16822   */\n      0x00\n        /* \"#utility.yul\":16838:16858   */\n      tag_303\n        /* \"#utility.yul\":16856:16857   */\n      dup3\n        /* \"#utility.yul\":16838:16858   */\n      tag_85\n      jump\t// in\n    tag_303:\n        /* \"#utility.yul\":16833:16858   */\n      swap2\n      pop\n        /* \"#utility.yul\":16872:16892   */\n      tag_304\n        /* \"#utility.yul\":16890:16891   */\n      dup4\n        /* \"#utility.yul\":16872:16892   */\n      tag_85\n      jump\t// in\n    tag_304:\n        /* \"#utility.yul\":16867:16892   */\n      swap3\n      pop\n        /* \"#utility.yul\":16915:16916   */\n      dup3\n        /* \"#utility.yul\":16912:16913   */\n      dup3\n        /* \"#utility.yul\":16908:16917   */\n      add\n        /* \"#utility.yul\":16901:16917   */\n      swap1\n      pop\n        /* \"#utility.yul\":16936:16939   */\n      dup1\n        /* \"#utility.yul\":16933:16934   */\n      dup3\n        /* \"#utility.yul\":16930:16940   */\n      gt\n        /* \"#utility.yul\":16927:16963   */\n      iszero\n      tag_305\n      jumpi\n        /* \"#utility.yul\":16943:16961   */\n      tag_306\n      tag_117\n      jump\t// in\n    tag_306:\n        /* \"#utility.yul\":16927:16963   */\n    tag_305:\n        /* \"#utility.yul\":16779:16970   */\n      swap3\n      swap2\n      pop\n      pop\n      jump\t// out\n        /* \"#utility.yul\":16976:17154   */\n    tag_122:\n        /* \"#utility.yul\":17116:17146   */\n      0x596f7520617265206e6f7420656c696769626c6520746f20766f746500000000\n        /* \"#utility.yul\":17112:17113   */\n      0x00\n        /* \"#utility.yul\":17104:17110   */\n      dup3\n        /* \"#utility.yul\":17100:17114   */\n      add\n        /* \"#utility.yul\":17093:17147   */\n      mstore\n        /* \"#utility.yul\":16976:17154   */\n      pop\n      jump\t// out\n        /* \"#utility.yul\":17160:17526   */\n    tag_123:\n        /* \"#utility.yul\":17302:17305   */\n      0x00\n        /* \"#utility.yul\":17323:17390   */\n      tag_309\n        /* \"#utility.yul\":17387:17389   */\n      0x1c\n        /* \"#utility.yul\":17382:17385   */\n      dup4\n        /* \"#utility.yul\":17323:17390   */\n      tag_96\n      jump\t// in\n    tag_309:\n        /* \"#utility.yul\":17316:17390   */\n      swap2\n      pop\n        /* \"#utility.yul\":17399:17492   */\n      tag_310\n        /* \"#utility.yul\":17488:17491   */\n      dup3\n        /* \"#utility.yul\":17399:17492   */\n      tag_122\n      jump\t// in\n    tag_310:\n        /* \"#utility.yul\":17517:17519   */\n      0x20\n        /* \"#utility.yul\":17512:17515   */\n      dup3\n        /* \"#utility.yul\":17508:17520   */\n      add\n        /* \"#utility.yul\":17501:17520   */\n      swap1\n      pop\n        /* \"#utility.yul\":17160:17526   */\n      swap2\n      swap1\n      pop\n      jump\t// out\n        /* \"#utility.yul\":17532:17951   */\n    tag_63:\n        /* \"#utility.yul\":17698:17702   */\n      0x00\n        /* \"#utility.yul\":17736:17738   */\n      0x20\n        /* \"#utility.yul\":17725:17734   */\n      dup3\n        /* \"#utility.yul\":17721:17739   */\n      add\n        /* \"#utility.yul\":17713:17739   */\n      swap1\n      pop\n        /* \"#utility.yul\":17785:17794   */\n      dup2\n        /* \"#utility.yul\":17779:17783   */\n      dup2\n        /* \"#utility.yul\":17775:17795   */\n      sub\n        /* \"#utility.yul\":17771:17772   */\n      0x00\n        /* \"#utility.yul\":17760:17769   */\n      dup4\n        /* \"#utility.yul\":17756:17773   */\n      add\n        /* \"#utility.yul\":17749:17796   */\n      mstore\n        /* \"#utility.yul\":17813:17944   */\n      tag_312\n        /* \"#utility.yul\":17939:17943   */\n      dup2\n        /* \"#utility.yul\":17813:17944   */\n      tag_123\n      jump\t// in\n    tag_312:\n        /* \"#utility.yul\":17805:17944   */\n      swap1\n      pop\n        /* \"#utility.yul\":17532:17951   */\n      swap2\n      swap1\n      pop\n      jump\t// out\n        /* \"#utility.yul\":17957:18133   */\n    tag_124:\n        /* \"#utility.yul\":18097:18125   */\n      0x596f752061726520616c72656164792072656769737465726564000000000000\n        /* \"#utility.yul\":18093:18094   */\n      0x00\n        /* \"#utility.yul\":18085:18091   */\n      dup3\n        /* \"#utility.yul\":18081:18095   */\n      add\n        /* \"#utility.yul\":18074:18126   */\n      mstore\n        /* \"#utility.yul\":17957:18133   */\n      pop\n      jump\t// out\n        /* \"#utility.yul\":18139:18505   */\n    tag_125:\n        /* \"#utility.yul\":18281:18284   */\n      0x00\n        /* \"#utility.yul\":18302:18369   */\n      tag_315\n        /* \"#utility.yul\":18366:18368   */\n      0x1a\n        /* \"#utility.yul\":18361:18364   */\n      dup4\n        /* \"#utility.yul\":18302:18369   */\n      tag_96\n      jump\t// in\n    tag_315:\n        /* \"#utility.yul\":18295:18369   */\n      swap2\n      pop\n        /* \"#utility.yul\":18378:18471   */\n      tag_316\n        /* \"#utility.yul\":18467:18470   */\n      dup3\n        /* \"#utility.yul\":18378:18471   */\n      tag_124\n      jump\t// in\n    tag_316:\n        /* \"#utility.yul\":18496:18498   */\n      0x20\n        /* \"#utility.yul\":18491:18494   */\n      dup3\n        /* \"#utility.yul\":18487:18499   */\n      add\n        /* \"#utility.yul\":18480:18499   */\n      swap1\n      pop\n        /* \"#utility.yul\":18139:18505   */\n      swap2\n      swap1\n      pop\n      jump\t// out\n        /* \"#utility.yul\":18511:18930   */\n    tag_66:\n        /* \"#utility.yul\":18677:18681   */\n      0x00\n        /* \"#utility.yul\":18715:18717   */\n      0x20\n        /* \"#utility.yul\":18704:18713   */\n      dup3\n        /* \"#utility.yul\":18700:18718   */\n      add\n        /* \"#utility.yul\":18692:18718   */\n      swap1\n      pop\n        /* \"#utility.yul\":18764:18773   */\n      dup2\n        /* \"#utility.yul\":18758:18762   */\n      dup2\n        /* \"#utility.yul\":18754:18774   */\n      sub\n        /* \"#utility.yul\":18750:18751   */\n      0x00\n        /* \"#utility.yul\":18739:18748   */\n      dup4\n        /* \"#utility.yul\":18735:18752   */\n      add\n        /* \"#utility.yul\":18728:18775   */\n      mstore\n        /* \"#utility.yul\":18792:18923   */\n      tag_318\n        /* \"#utility.yul\":18918:18922   */\n      dup2\n        /* \"#utility.yul\":18792:18923   */\n      tag_125\n      jump\t// in\n    tag_318:\n        /* \"#utility.yul\":18784:18923   */\n      swap1\n      pop\n        /* \"#utility.yul\":18511:18930   */\n      swap2\n      swap1\n      pop\n      jump\t// out\n\n    auxdata: 0xa26469706673582212206ad7d293dd46b00f6014b0a4108a96b02b9d893783600ecf710237a5e9de9e7e64736f6c63430008120033\n}\n",
				"bytecode": {
					"linkReferences": {},
					"object": "608060405234801561001057600080fd5b50336000806101000a81548173ffffffffffffffffffffffffffffffffffffffff021916908373ffffffffffffffffffffffffffffffffffffffff160217905550610e104261005f91906100a3565b6001819055506100d7565b6000819050919050565b7f4e487b7100000000000000000000000000000000000000000000000000000000600052601160045260246000fd5b60006100ae8261006a565b91506100b98361006a565b92508282019050808211156100d1576100d0610074565b5b92915050565b611108806100e66000396000f3fe608060405234801561001057600080fd5b50600436106100625760003560e01c806324a557b01461006757806353358fc414610083578063612032651461009f5780638155f736146100bd578063d55d73c5146100db578063e661ea5f1461010b575b600080fd5b610081600480360381019061007c919061088c565b610127565b005b61009d6004803603810190610098919061092b565b6102e0565b005b6100a7610463565b6040516100b49190610967565b60405180910390f35b6100c5610487565b6040516100d29190610a40565b60405180910390f35b6100f560048036038101906100f09190610a62565b610515565b6040516101029190610967565b60405180910390f35b61012560048036038101906101209190610a8f565b610554565b005b60008054906101000a900473ffffffffffffffffffffffffffffffffffffffff1673ffffffffffffffffffffffffffffffffffffffff163373ffffffffffffffffffffffffffffffffffffffff16146101b5576040517f08c379a00000000000000000000000000000000000000000000000000000000081526004016101ac90610b6e565b60405180910390fd5b600060405180608001604052808581526020018481526020018381526020016000815250905080600460008773ffffffffffffffffffffffffffffffffffffffff1673ffffffffffffffffffffffffffffffffffffffff16815260200190815260200160002060008201518160000190816102309190610da5565b5060208201518160010190816102469190610da5565b5060408201518160020155606082015181600301559050506003859080600181540180825580915050600190039060005260206000200160009091909190916101000a81548173ffffffffffffffffffffffffffffffffffffffff021916908373ffffffffffffffffffffffffffffffffffffffff160217905550600260008154809291906102d490610ea6565b91905055505050505050565b60015442106102ee57600080fd5b6000600560003373ffffffffffffffffffffffffffffffffffffffff1673ffffffffffffffffffffffffffffffffffffffff1681526020019081526020016000206001015403610373576040517f08c379a000000000000000000000000000000000000000000000000000000000815260040161036a90610f3a565b60405180910390fd5b60001515600660003373ffffffffffffffffffffffffffffffffffffffff1673ffffffffffffffffffffffffffffffffffffffff16815260200190815260200160002060009054906101000a900460ff16151514610406576040517f08c379a00000000000000000000000000000000000000000000000000000000081526004016103fd90610fa6565b60405180910390fd5b6001600460008373ffffffffffffffffffffffffffffffffffffffff1673ffffffffffffffffffffffffffffffffffffffff16815260200190815260200160002060030160008282546104599190610fc6565b9250508190555050565b60008054906101000a900473ffffffffffffffffffffffffffffffffffffffff1681565b6060600380548060200260200160405190810160405280929190818152602001828054801561050b57602002820191906000526020600020905b8160009054906101000a900473ffffffffffffffffffffffffffffffffffffffff1673ffffffffffffffffffffffffffffffffffffffff16815260200190600101908083116104c1575b5050505050905090565b6003818154811061052557600080fd5b906000526020600020016000915054906101000a900473ffffffffffffffffffffffffffffffffffffffff1681565b6012811015610598576040517f08c379a000000000000000000000000000000000000000000000000000000000815260040161058f90611046565b60405180910390fd5b6000600560003373ffffffffffffffffffffffffffffffffffffffff1673ffffffffffffffffffffffffffffffffffffffff168152602001908152602001600020600101541461061d576040517f08c379a0000000000000000000000000000000000000000000000000000000008152600401610614906110b2565b60405180910390fd5b6000604051806040016040528084815260200183815250905080600560003373ffffffffffffffffffffffffffffffffffffffff1673ffffffffffffffffffffffffffffffffffffffff168152602001908152602001600020600082015181600001908161068b9190610da5565b5060208201518160010155905050505050565b6000604051905090565b600080fd5b600080fd5b600073ffffffffffffffffffffffffffffffffffffffff82169050919050565b60006106dd826106b2565b9050919050565b6106ed816106d2565b81146106f857600080fd5b50565b60008135905061070a816106e4565b92915050565b600080fd5b600080fd5b6000601f19601f8301169050919050565b7f4e487b7100000000000000000000000000000000000000000000000000000000600052604160045260246000fd5b6107638261071a565b810181811067ffffffffffffffff821117156107825761078161072b565b5b80604052505050565b600061079561069e565b90506107a1828261075a565b919050565b600067ffffffffffffffff8211156107c1576107c061072b565b5b6107ca8261071a565b9050602081019050919050565b82818337600083830152505050565b60006107f96107f4846107a6565b61078b565b90508281526020810184848401111561081557610814610715565b5b6108208482856107d7565b509392505050565b600082601f83011261083d5761083c610710565b5b813561084d8482602086016107e6565b91505092915050565b6000819050919050565b61086981610856565b811461087457600080fd5b50565b60008135905061088681610860565b92915050565b600080600080608085870312156108a6576108a56106a8565b5b60006108b4878288016106fb565b945050602085013567ffffffffffffffff8111156108d5576108d46106ad565b5b6108e187828801610828565b935050604085013567ffffffffffffffff811115610902576109016106ad565b5b61090e87828801610828565b925050606061091f87828801610877565b91505092959194509250565b600060208284031215610941576109406106a8565b5b600061094f848285016106fb565b91505092915050565b610961816106d2565b82525050565b600060208201905061097c6000830184610958565b92915050565b600081519050919050565b600082825260208201905092915050565b6000819050602082019050919050565b6109b7816106d2565b82525050565b60006109c983836109ae565b60208301905092915050565b6000602082019050919050565b60006109ed82610982565b6109f7818561098d565b9350610a028361099e565b8060005b83811015610a33578151610a1a88826109bd565b9750610a25836109d5565b925050600181019050610a06565b5085935050505092915050565b60006020820190508181036000830152610a5a81846109e2565b905092915050565b600060208284031215610a7857610a776106a8565b5b6000610a8684828501610877565b91505092915050565b60008060408385031215610aa657610aa56106a8565b5b600083013567ffffffffffffffff811115610ac457610ac36106ad565b5b610ad085828601610828565b9250506020610ae185828601610877565b9150509250929050565b600082825260208201905092915050565b7f4f6e6c7920746865206f7267616e697365722063616e2072656769737465722060008201527f63616e6469646174657300000000000000000000000000000000000000000000602082015250565b6000610b58602a83610aeb565b9150610b6382610afc565b604082019050919050565b60006020820190508181036000830152610b8781610b4b565b9050919050565b600081519050919050565b7f4e487b7100000000000000000000000000000000000000000000000000000000600052602260045260246000fd5b60006002820490506001821680610be057607f821691505b602082108103610bf357610bf2610b99565b5b50919050565b60008190508160005260206000209050919050565b60006020601f8301049050919050565b600082821b905092915050565b600060088302610c5b7fffffffffffffffffffffffffffffffffffffffffffffffffffffffffffffffff82610c1e565b610c658683610c1e565b95508019841693508086168417925050509392505050565b6000819050919050565b6000610ca2610c9d610c9884610856565b610c7d565b610856565b9050919050565b6000819050919050565b610cbc83610c87565b610cd0610cc882610ca9565b848454610c2b565b825550505050565b600090565b610ce5610cd8565b610cf0818484610cb3565b505050565b5b81811015610d1457610d09600082610cdd565b600181019050610cf6565b5050565b601f821115610d5957610d2a81610bf9565b610d3384610c0e565b81016020851015610d42578190505b610d56610d4e85610c0e565b830182610cf5565b50505b505050565b600082821c905092915050565b6000610d7c60001984600802610d5e565b1980831691505092915050565b6000610d958383610d6b565b9150826002028217905092915050565b610dae82610b8e565b67ffffffffffffffff811115610dc757610dc661072b565b5b610dd18254610bc8565b610ddc828285610d18565b600060209050601f831160018114610e0f5760008415610dfd578287015190505b610e078582610d89565b865550610e6f565b601f198416610e1d86610bf9565b60005b82811015610e4557848901518255600182019150602085019450602081019050610e20565b86831015610e625784890151610e5e601f891682610d6b565b8355505b6001600288020188555050505b505050505050565b7f4e487b7100000000000000000000000000000000000000000000000000000000600052601160045260246000fd5b6000610eb182610856565b91507fffffffffffffffffffffffffffffffffffffffffffffffffffffffffffffffff8203610ee357610ee2610e77565b5b600182019050919050565b7f596f7520617265206e6f74206120766f74657200000000000000000000000000600082015250565b6000610f24601383610aeb565b9150610f2f82610eee565b602082019050919050565b60006020820190508181036000830152610f5381610f17565b9050919050565b7f596f75206861766520616c726561647920766f74656400000000000000000000600082015250565b6000610f90601683610aeb565b9150610f9b82610f5a565b602082019050919050565b60006020820190508181036000830152610fbf81610f83565b9050919050565b6000610fd182610856565b9150610fdc83610856565b9250828201905080821115610ff457610ff3610e77565b5b92915050565b7f596f7520617265206e6f7420656c696769626c6520746f20766f746500000000600082015250565b6000611030601c83610aeb565b915061103b82610ffa565b602082019050919050565b6000602082019050818103600083015261105f81611023565b9050919050565b7f596f752061726520616c72656164792072656769737465726564000000000000600082015250565b600061109c601a83610aeb565b91506110a782611066565b602082019050919050565b600060208201905081810360008301526110cb8161108f565b905091905056fea26469706673582212206ad7d293dd46b00f6014b0a4108a96b02b9d893783600ecf710237a5e9de9e7e64736f6c63430008120033",
					"opcodes": "PUSH1 0x80 PUSH1 0x40 MSTORE CALLVALUE DUP1 ISZERO PUSH2 0x10 JUMPI PUSH1 0x0 DUP1 REVERT JUMPDEST POP CALLER PUSH1 0x0 DUP1 PUSH2 0x100 EXP DUP2 SLOAD DUP2 PUSH20 0xFFFFFFFFFFFFFFFFFFFFFFFFFFFFFFFFFFFFFFFF MUL NOT AND SWAP1 DUP4 PUSH20 0xFFFFFFFFFFFFFFFFFFFFFFFFFFFFFFFFFFFFFFFF AND MUL OR SWAP1 SSTORE POP PUSH2 0xE10 TIMESTAMP PUSH2 0x5F SWAP2 SWAP1 PUSH2 0xA3 JUMP JUMPDEST PUSH1 0x1 DUP2 SWAP1 SSTORE POP PUSH2 0xD7 JUMP JUMPDEST PUSH1 0x0 DUP2 SWAP1 POP SWAP2 SWAP1 POP JUMP JUMPDEST PUSH32 0x4E487B7100000000000000000000000000000000000000000000000000000000 PUSH1 0x0 MSTORE PUSH1 0x11 PUSH1 0x4 MSTORE PUSH1 0x24 PUSH1 0x0 REVERT JUMPDEST PUSH1 0x0 PUSH2 0xAE DUP3 PUSH2 0x6A JUMP JUMPDEST SWAP2 POP PUSH2 0xB9 DUP4 PUSH2 0x6A JUMP JUMPDEST SWAP3 POP DUP3 DUP3 ADD SWAP1 POP DUP1 DUP3 GT ISZERO PUSH2 0xD1 JUMPI PUSH2 0xD0 PUSH2 0x74 JUMP JUMPDEST JUMPDEST SWAP3 SWAP2 POP POP JUMP JUMPDEST PUSH2 0x1108 DUP1 PUSH2 0xE6 PUSH1 0x0 CODECOPY PUSH1 0x0 RETURN INVALID PUSH1 0x80 PUSH1 0x40 MSTORE CALLVALUE DUP1 ISZERO PUSH2 0x10 JUMPI PUSH1 0x0 DUP1 REVERT JUMPDEST POP PUSH1 0x4 CALLDATASIZE LT PUSH2 0x62 JUMPI PUSH1 0x0 CALLDATALOAD PUSH1 0xE0 SHR DUP1 PUSH4 0x24A557B0 EQ PUSH2 0x67 JUMPI DUP1 PUSH4 0x53358FC4 EQ PUSH2 0x83 JUMPI DUP1 PUSH4 0x61203265 EQ PUSH2 0x9F JUMPI DUP1 PUSH4 0x8155F736 EQ PUSH2 0xBD JUMPI DUP1 PUSH4 0xD55D73C5 EQ PUSH2 0xDB JUMPI DUP1 PUSH4 0xE661EA5F EQ PUSH2 0x10B JUMPI JUMPDEST PUSH1 0x0 DUP1 REVERT JUMPDEST PUSH2 0x81 PUSH1 0x4 DUP1 CALLDATASIZE SUB DUP2 ADD SWAP1 PUSH2 0x7C SWAP2 SWAP1 PUSH2 0x88C JUMP JUMPDEST PUSH2 0x127 JUMP JUMPDEST STOP JUMPDEST PUSH2 0x9D PUSH1 0x4 DUP1 CALLDATASIZE SUB DUP2 ADD SWAP1 PUSH2 0x98 SWAP2 SWAP1 PUSH2 0x92B JUMP JUMPDEST PUSH2 0x2E0 JUMP JUMPDEST STOP JUMPDEST PUSH2 0xA7 PUSH2 0x463 JUMP JUMPDEST PUSH1 0x40 MLOAD PUSH2 0xB4 SWAP2 SWAP1 PUSH2 0x967 JUMP JUMPDEST PUSH1 0x40 MLOAD DUP1 SWAP2 SUB SWAP1 RETURN JUMPDEST PUSH2 0xC5 PUSH2 0x487 JUMP JUMPDEST PUSH1 0x40 MLOAD PUSH2 0xD2 SWAP2 SWAP1 PUSH2 0xA40 JUMP JUMPDEST PUSH1 0x40 MLOAD DUP1 SWAP2 SUB SWAP1 RETURN JUMPDEST PUSH2 0xF5 PUSH1 0x4 DUP1 CALLDATASIZE SUB DUP2 ADD SWAP1 PUSH2 0xF0 SWAP2 SWAP1 PUSH2 0xA62 JUMP JUMPDEST PUSH2 0x515 JUMP JUMPDEST PUSH1 0x40 MLOAD PUSH2 0x102 SWAP2 SWAP1 PUSH2 0x967 JUMP JUMPDEST PUSH1 0x40 MLOAD DUP1 SWAP2 SUB SWAP1 RETURN JUMPDEST PUSH2 0x125 PUSH1 0x4 DUP1 CALLDATASIZE SUB DUP2 ADD SWAP1 PUSH2 0x120 SWAP2 SWAP1 PUSH2 0xA8F JUMP JUMPDEST PUSH2 0x554 JUMP JUMPDEST STOP JUMPDEST PUSH1 0x0 DUP1 SLOAD SWAP1 PUSH2 0x100 EXP SWAP1 DIV PUSH20 0xFFFFFFFFFFFFFFFFFFFFFFFFFFFFFFFFFFFFFFFF AND PUSH20 0xFFFFFFFFFFFFFFFFFFFFFFFFFFFFFFFFFFFFFFFF AND CALLER PUSH20 0xFFFFFFFFFFFFFFFFFFFFFFFFFFFFFFFFFFFFFFFF AND EQ PUSH2 0x1B5 JUMPI PUSH1 0x40 MLOAD PUSH32 0x8C379A000000000000000000000000000000000000000000000000000000000 DUP2 MSTORE PUSH1 0x4 ADD PUSH2 0x1AC SWAP1 PUSH2 0xB6E JUMP JUMPDEST PUSH1 0x40 MLOAD DUP1 SWAP2 SUB SWAP1 REVERT JUMPDEST PUSH1 0x0 PUSH1 0x40 MLOAD DUP1 PUSH1 0x80 ADD PUSH1 0x40 MSTORE DUP1 DUP6 DUP2 MSTORE PUSH1 0x20 ADD DUP5 DUP2 MSTORE PUSH1 0x20 ADD DUP4 DUP2 MSTORE PUSH1 0x20 ADD PUSH1 0x0 DUP2 MSTORE POP SWAP1 POP DUP1 PUSH1 0x4 PUSH1 0x0 DUP8 PUSH20 0xFFFFFFFFFFFFFFFFFFFFFFFFFFFFFFFFFFFFFFFF AND PUSH20 0xFFFFFFFFFFFFFFFFFFFFFFFFFFFFFFFFFFFFFFFF AND DUP2 MSTORE PUSH1 0x20 ADD SWAP1 DUP2 MSTORE PUSH1 0x20 ADD PUSH1 0x0 KECCAK256 PUSH1 0x0 DUP3 ADD MLOAD DUP2 PUSH1 0x0 ADD SWAP1 DUP2 PUSH2 0x230 SWAP2 SWAP1 PUSH2 0xDA5 JUMP JUMPDEST POP PUSH1 0x20 DUP3 ADD MLOAD DUP2 PUSH1 0x1 ADD SWAP1 DUP2 PUSH2 0x246 SWAP2 SWAP1 PUSH2 0xDA5 JUMP JUMPDEST POP PUSH1 0x40 DUP3 ADD MLOAD DUP2 PUSH1 0x2 ADD SSTORE PUSH1 0x60 DUP3 ADD MLOAD DUP2 PUSH1 0x3 ADD SSTORE SWAP1 POP POP PUSH1 0x3 DUP6 SWAP1 DUP1 PUSH1 0x1 DUP2 SLOAD ADD DUP1 DUP3 SSTORE DUP1 SWAP2 POP POP PUSH1 0x1 SWAP1 SUB SWAP1 PUSH1 0x0 MSTORE PUSH1 0x20 PUSH1 0x0 KECCAK256 ADD PUSH1 0x0 SWAP1 SWAP2 SWAP1 SWAP2 SWAP1 SWAP2 PUSH2 0x100 EXP DUP2 SLOAD DUP2 PUSH20 0xFFFFFFFFFFFFFFFFFFFFFFFFFFFFFFFFFFFFFFFF MUL NOT AND SWAP1 DUP4 PUSH20 0xFFFFFFFFFFFFFFFFFFFFFFFFFFFFFFFFFFFFFFFF AND MUL OR SWAP1 SSTORE POP PUSH1 0x2 PUSH1 0x0 DUP2 SLOAD DUP1 SWAP3 SWAP2 SWAP1 PUSH2 0x2D4 SWAP1 PUSH2 0xEA6 JUMP JUMPDEST SWAP2 SWAP1 POP SSTORE POP POP POP POP POP POP JUMP JUMPDEST PUSH1 0x1 SLOAD TIMESTAMP LT PUSH2 0x2EE JUMPI PUSH1 0x0 DUP1 REVERT JUMPDEST PUSH1 0x0 PUSH1 0x5 PUSH1 0x0 CALLER PUSH20 0xFFFFFFFFFFFFFFFFFFFFFFFFFFFFFFFFFFFFFFFF AND PUSH20 0xFFFFFFFFFFFFFFFFFFFFFFFFFFFFFFFFFFFFFFFF AND DUP2 MSTORE PUSH1 0x20 ADD SWAP1 DUP2 MSTORE PUSH1 0x20 ADD PUSH1 0x0 KECCAK256 PUSH1 0x1 ADD SLOAD SUB PUSH2 0x373 JUMPI PUSH1 0x40 MLOAD PUSH32 0x8C379A000000000000000000000000000000000000000000000000000000000 DUP2 MSTORE PUSH1 0x4 ADD PUSH2 0x36A SWAP1 PUSH2 0xF3A JUMP JUMPDEST PUSH1 0x40 MLOAD DUP1 SWAP2 SUB SWAP1 REVERT JUMPDEST PUSH1 0x0 ISZERO ISZERO PUSH1 0x6 PUSH1 0x0 CALLER PUSH20 0xFFFFFFFFFFFFFFFFFFFFFFFFFFFFFFFFFFFFFFFF AND PUSH20 0xFFFFFFFFFFFFFFFFFFFFFFFFFFFFFFFFFFFFFFFF AND DUP2 MSTORE PUSH1 0x20 ADD SWAP1 DUP2 MSTORE PUSH1 0x20 ADD PUSH1 0x0 KECCAK256 PUSH1 0x0 SWAP1 SLOAD SWAP1 PUSH2 0x100 EXP SWAP1 DIV PUSH1 0xFF AND ISZERO ISZERO EQ PUSH2 0x406 JUMPI PUSH1 0x40 MLOAD PUSH32 0x8C379A000000000000000000000000000000000000000000000000000000000 DUP2 MSTORE PUSH1 0x4 ADD PUSH2 0x3FD SWAP1 PUSH2 0xFA6 JUMP JUMPDEST PUSH1 0x40 MLOAD DUP1 SWAP2 SUB SWAP1 REVERT JUMPDEST PUSH1 0x1 PUSH1 0x4 PUSH1 0x0 DUP4 PUSH20 0xFFFFFFFFFFFFFFFFFFFFFFFFFFFFFFFFFFFFFFFF AND PUSH20 0xFFFFFFFFFFFFFFFFFFFFFFFFFFFFFFFFFFFFFFFF AND DUP2 MSTORE PUSH1 0x20 ADD SWAP1 DUP2 MSTORE PUSH1 0x20 ADD PUSH1 0x0 KECCAK256 PUSH1 0x3 ADD PUSH1 0x0 DUP3 DUP3 SLOAD PUSH2 0x459 SWAP2 SWAP1 PUSH2 0xFC6 JUMP JUMPDEST SWAP3 POP POP DUP2 SWAP1 SSTORE POP POP JUMP JUMPDEST PUSH1 0x0 DUP1 SLOAD SWAP1 PUSH2 0x100 EXP SWAP1 DIV PUSH20 0xFFFFFFFFFFFFFFFFFFFFFFFFFFFFFFFFFFFFFFFF AND DUP2 JUMP JUMPDEST PUSH1 0x60 PUSH1 0x3 DUP1 SLOAD DUP1 PUSH1 0x20 MUL PUSH1 0x20 ADD PUSH1 0x40 MLOAD SWAP1 DUP2 ADD PUSH1 0x40 MSTORE DUP1 SWAP3 SWAP2 SWAP1 DUP2 DUP2 MSTORE PUSH1 0x20 ADD DUP3 DUP1 SLOAD DUP1 ISZERO PUSH2 0x50B JUMPI PUSH1 0x20 MUL DUP3 ADD SWAP2 SWAP1 PUSH1 0x0 MSTORE PUSH1 0x20 PUSH1 0x0 KECCAK256 SWAP1 JUMPDEST DUP2 PUSH1 0x0 SWAP1 SLOAD SWAP1 PUSH2 0x100 EXP SWAP1 DIV PUSH20 0xFFFFFFFFFFFFFFFFFFFFFFFFFFFFFFFFFFFFFFFF AND PUSH20 0xFFFFFFFFFFFFFFFFFFFFFFFFFFFFFFFFFFFFFFFF AND DUP2 MSTORE PUSH1 0x20 ADD SWAP1 PUSH1 0x1 ADD SWAP1 DUP1 DUP4 GT PUSH2 0x4C1 JUMPI JUMPDEST POP POP POP POP POP SWAP1 POP SWAP1 JUMP JUMPDEST PUSH1 0x3 DUP2 DUP2 SLOAD DUP2 LT PUSH2 0x525 JUMPI PUSH1 0x0 DUP1 REVERT JUMPDEST SWAP1 PUSH1 0x0 MSTORE PUSH1 0x20 PUSH1 0x0 KECCAK256 ADD PUSH1 0x0 SWAP2 POP SLOAD SWAP1 PUSH2 0x100 EXP SWAP1 DIV PUSH20 0xFFFFFFFFFFFFFFFFFFFFFFFFFFFFFFFFFFFFFFFF AND DUP2 JUMP JUMPDEST PUSH1 0x12 DUP2 LT ISZERO PUSH2 0x598 JUMPI PUSH1 0x40 MLOAD PUSH32 0x8C379A000000000000000000000000000000000000000000000000000000000 DUP2 MSTORE PUSH1 0x4 ADD PUSH2 0x58F SWAP1 PUSH2 0x1046 JUMP JUMPDEST PUSH1 0x40 MLOAD DUP1 SWAP2 SUB SWAP1 REVERT JUMPDEST PUSH1 0x0 PUSH1 0x5 PUSH1 0x0 CALLER PUSH20 0xFFFFFFFFFFFFFFFFFFFFFFFFFFFFFFFFFFFFFFFF AND PUSH20 0xFFFFFFFFFFFFFFFFFFFFFFFFFFFFFFFFFFFFFFFF AND DUP2 MSTORE PUSH1 0x20 ADD SWAP1 DUP2 MSTORE PUSH1 0x20 ADD PUSH1 0x0 KECCAK256 PUSH1 0x1 ADD SLOAD EQ PUSH2 0x61D JUMPI PUSH1 0x40 MLOAD PUSH32 0x8C379A000000000000000000000000000000000000000000000000000000000 DUP2 MSTORE PUSH1 0x4 ADD PUSH2 0x614 SWAP1 PUSH2 0x10B2 JUMP JUMPDEST PUSH1 0x40 MLOAD DUP1 SWAP2 SUB SWAP1 REVERT JUMPDEST PUSH1 0x0 PUSH1 0x40 MLOAD DUP1 PUSH1 0x40 ADD PUSH1 0x40 MSTORE DUP1 DUP5 DUP2 MSTORE PUSH1 0x20 ADD DUP4 DUP2 MSTORE POP SWAP1 POP DUP1 PUSH1 0x5 PUSH1 0x0 CALLER PUSH20 0xFFFFFFFFFFFFFFFFFFFFFFFFFFFFFFFFFFFFFFFF AND PUSH20 0xFFFFFFFFFFFFFFFFFFFFFFFFFFFFFFFFFFFFFFFF AND DUP2 MSTORE PUSH1 0x20 ADD SWAP1 DUP2 MSTORE PUSH1 0x20 ADD PUSH1 0x0 KECCAK256 PUSH1 0x0 DUP3 ADD MLOAD DUP2 PUSH1 0x0 ADD SWAP1 DUP2 PUSH2 0x68B SWAP2 SWAP1 PUSH2 0xDA5 JUMP JUMPDEST POP PUSH1 0x20 DUP3 ADD MLOAD DUP2 PUSH1 0x1 ADD SSTORE SWAP1 POP POP POP POP POP JUMP JUMPDEST PUSH1 0x0 PUSH1 0x40 MLOAD SWAP1 POP SWAP1 JUMP JUMPDEST PUSH1 0x0 DUP1 REVERT JUMPDEST PUSH1 0x0 DUP1 REVERT JUMPDEST PUSH1 0x0 PUSH20 0xFFFFFFFFFFFFFFFFFFFFFFFFFFFFFFFFFFFFFFFF DUP3 AND SWAP1 POP SWAP2 SWAP1 POP JUMP JUMPDEST PUSH1 0x0 PUSH2 0x6DD DUP3 PUSH2 0x6B2 JUMP JUMPDEST SWAP1 POP SWAP2 SWAP1 POP JUMP JUMPDEST PUSH2 0x6ED DUP2 PUSH2 0x6D2 JUMP JUMPDEST DUP2 EQ PUSH2 0x6F8 JUMPI PUSH1 0x0 DUP1 REVERT JUMPDEST POP JUMP JUMPDEST PUSH1 0x0 DUP2 CALLDATALOAD SWAP1 POP PUSH2 0x70A DUP2 PUSH2 0x6E4 JUMP JUMPDEST SWAP3 SWAP2 POP POP JUMP JUMPDEST PUSH1 0x0 DUP1 REVERT JUMPDEST PUSH1 0x0 DUP1 REVERT JUMPDEST PUSH1 0x0 PUSH1 0x1F NOT PUSH1 0x1F DUP4 ADD AND SWAP1 POP SWAP2 SWAP1 POP JUMP JUMPDEST PUSH32 0x4E487B7100000000000000000000000000000000000000000000000000000000 PUSH1 0x0 MSTORE PUSH1 0x41 PUSH1 0x4 MSTORE PUSH1 0x24 PUSH1 0x0 REVERT JUMPDEST PUSH2 0x763 DUP3 PUSH2 0x71A JUMP JUMPDEST DUP2 ADD DUP2 DUP2 LT PUSH8 0xFFFFFFFFFFFFFFFF DUP3 GT OR ISZERO PUSH2 0x782 JUMPI PUSH2 0x781 PUSH2 0x72B JUMP JUMPDEST JUMPDEST DUP1 PUSH1 0x40 MSTORE POP POP POP JUMP JUMPDEST PUSH1 0x0 PUSH2 0x795 PUSH2 0x69E JUMP JUMPDEST SWAP1 POP PUSH2 0x7A1 DUP3 DUP3 PUSH2 0x75A JUMP JUMPDEST SWAP2 SWAP1 POP JUMP JUMPDEST PUSH1 0x0 PUSH8 0xFFFFFFFFFFFFFFFF DUP3 GT ISZERO PUSH2 0x7C1 JUMPI PUSH2 0x7C0 PUSH2 0x72B JUMP JUMPDEST JUMPDEST PUSH2 0x7CA DUP3 PUSH2 0x71A JUMP JUMPDEST SWAP1 POP PUSH1 0x20 DUP2 ADD SWAP1 POP SWAP2 SWAP1 POP JUMP JUMPDEST DUP3 DUP2 DUP4 CALLDATACOPY PUSH1 0x0 DUP4 DUP4 ADD MSTORE POP POP POP JUMP JUMPDEST PUSH1 0x0 PUSH2 0x7F9 PUSH2 0x7F4 DUP5 PUSH2 0x7A6 JUMP JUMPDEST PUSH2 0x78B JUMP JUMPDEST SWAP1 POP DUP3 DUP2 MSTORE PUSH1 0x20 DUP2 ADD DUP5 DUP5 DUP5 ADD GT ISZERO PUSH2 0x815 JUMPI PUSH2 0x814 PUSH2 0x715 JUMP JUMPDEST JUMPDEST PUSH2 0x820 DUP5 DUP3 DUP6 PUSH2 0x7D7 JUMP JUMPDEST POP SWAP4 SWAP3 POP POP POP JUMP JUMPDEST PUSH1 0x0 DUP3 PUSH1 0x1F DUP4 ADD SLT PUSH2 0x83D JUMPI PUSH2 0x83C PUSH2 0x710 JUMP JUMPDEST JUMPDEST DUP2 CALLDATALOAD PUSH2 0x84D DUP5 DUP3 PUSH1 0x20 DUP7 ADD PUSH2 0x7E6 JUMP JUMPDEST SWAP2 POP POP SWAP3 SWAP2 POP POP JUMP JUMPDEST PUSH1 0x0 DUP2 SWAP1 POP SWAP2 SWAP1 POP JUMP JUMPDEST PUSH2 0x869 DUP2 PUSH2 0x856 JUMP JUMPDEST DUP2 EQ PUSH2 0x874 JUMPI PUSH1 0x0 DUP1 REVERT JUMPDEST POP JUMP JUMPDEST PUSH1 0x0 DUP2 CALLDATALOAD SWAP1 POP PUSH2 0x886 DUP2 PUSH2 0x860 JUMP JUMPDEST SWAP3 SWAP2 POP POP JUMP JUMPDEST PUSH1 0x0 DUP1 PUSH1 0x0 DUP1 PUSH1 0x80 DUP6 DUP8 SUB SLT ISZERO PUSH2 0x8A6 JUMPI PUSH2 0x8A5 PUSH2 0x6A8 JUMP JUMPDEST JUMPDEST PUSH1 0x0 PUSH2 0x8B4 DUP8 DUP3 DUP9 ADD PUSH2 0x6FB JUMP JUMPDEST SWAP5 POP POP PUSH1 0x20 DUP6 ADD CALLDATALOAD PUSH8 0xFFFFFFFFFFFFFFFF DUP2 GT ISZERO PUSH2 0x8D5 JUMPI PUSH2 0x8D4 PUSH2 0x6AD JUMP JUMPDEST JUMPDEST PUSH2 0x8E1 DUP8 DUP3 DUP9 ADD PUSH2 0x828 JUMP JUMPDEST SWAP4 POP POP PUSH1 0x40 DUP6 ADD CALLDATALOAD PUSH8 0xFFFFFFFFFFFFFFFF DUP2 GT ISZERO PUSH2 0x902 JUMPI PUSH2 0x901 PUSH2 0x6AD JUMP JUMPDEST JUMPDEST PUSH2 0x90E DUP8 DUP3 DUP9 ADD PUSH2 0x828 JUMP JUMPDEST SWAP3 POP POP PUSH1 0x60 PUSH2 0x91F DUP8 DUP3 DUP9 ADD PUSH2 0x877 JUMP JUMPDEST SWAP2 POP POP SWAP3 SWAP6 SWAP2 SWAP5 POP SWAP3 POP JUMP JUMPDEST PUSH1 0x0 PUSH1 0x20 DUP3 DUP5 SUB SLT ISZERO PUSH2 0x941 JUMPI PUSH2 0x940 PUSH2 0x6A8 JUMP JUMPDEST JUMPDEST PUSH1 0x0 PUSH2 0x94F DUP5 DUP3 DUP6 ADD PUSH2 0x6FB JUMP JUMPDEST SWAP2 POP POP SWAP3 SWAP2 POP POP JUMP JUMPDEST PUSH2 0x961 DUP2 PUSH2 0x6D2 JUMP JUMPDEST DUP3 MSTORE POP POP JUMP JUMPDEST PUSH1 0x0 PUSH1 0x20 DUP3 ADD SWAP1 POP PUSH2 0x97C PUSH1 0x0 DUP4 ADD DUP5 PUSH2 0x958 JUMP JUMPDEST SWAP3 SWAP2 POP POP JUMP JUMPDEST PUSH1 0x0 DUP2 MLOAD SWAP1 POP SWAP2 SWAP1 POP JUMP JUMPDEST PUSH1 0x0 DUP3 DUP3 MSTORE PUSH1 0x20 DUP3 ADD SWAP1 POP SWAP3 SWAP2 POP POP JUMP JUMPDEST PUSH1 0x0 DUP2 SWAP1 POP PUSH1 0x20 DUP3 ADD SWAP1 POP SWAP2 SWAP1 POP JUMP JUMPDEST PUSH2 0x9B7 DUP2 PUSH2 0x6D2 JUMP JUMPDEST DUP3 MSTORE POP POP JUMP JUMPDEST PUSH1 0x0 PUSH2 0x9C9 DUP4 DUP4 PUSH2 0x9AE JUMP JUMPDEST PUSH1 0x20 DUP4 ADD SWAP1 POP SWAP3 SWAP2 POP POP JUMP JUMPDEST PUSH1 0x0 PUSH1 0x20 DUP3 ADD SWAP1 POP SWAP2 SWAP1 POP JUMP JUMPDEST PUSH1 0x0 PUSH2 0x9ED DUP3 PUSH2 0x982 JUMP JUMPDEST PUSH2 0x9F7 DUP2 DUP6 PUSH2 0x98D JUMP JUMPDEST SWAP4 POP PUSH2 0xA02 DUP4 PUSH2 0x99E JUMP JUMPDEST DUP1 PUSH1 0x0 JUMPDEST DUP4 DUP2 LT ISZERO PUSH2 0xA33 JUMPI DUP2 MLOAD PUSH2 0xA1A DUP9 DUP3 PUSH2 0x9BD JUMP JUMPDEST SWAP8 POP PUSH2 0xA25 DUP4 PUSH2 0x9D5 JUMP JUMPDEST SWAP3 POP POP PUSH1 0x1 DUP2 ADD SWAP1 POP PUSH2 0xA06 JUMP JUMPDEST POP DUP6 SWAP4 POP POP POP POP SWAP3 SWAP2 POP POP JUMP JUMPDEST PUSH1 0x0 PUSH1 0x20 DUP3 ADD SWAP1 POP DUP2 DUP2 SUB PUSH1 0x0 DUP4 ADD MSTORE PUSH2 0xA5A DUP2 DUP5 PUSH2 0x9E2 JUMP JUMPDEST SWAP1 POP SWAP3 SWAP2 POP POP JUMP JUMPDEST PUSH1 0x0 PUSH1 0x20 DUP3 DUP5 SUB SLT ISZERO PUSH2 0xA78 JUMPI PUSH2 0xA77 PUSH2 0x6A8 JUMP JUMPDEST JUMPDEST PUSH1 0x0 PUSH2 0xA86 DUP5 DUP3 DUP6 ADD PUSH2 0x877 JUMP JUMPDEST SWAP2 POP POP SWAP3 SWAP2 POP POP JUMP JUMPDEST PUSH1 0x0 DUP1 PUSH1 0x40 DUP4 DUP6 SUB SLT ISZERO PUSH2 0xAA6 JUMPI PUSH2 0xAA5 PUSH2 0x6A8 JUMP JUMPDEST JUMPDEST PUSH1 0x0 DUP4 ADD CALLDATALOAD PUSH8 0xFFFFFFFFFFFFFFFF DUP2 GT ISZERO PUSH2 0xAC4 JUMPI PUSH2 0xAC3 PUSH2 0x6AD JUMP JUMPDEST JUMPDEST PUSH2 0xAD0 DUP6 DUP3 DUP7 ADD PUSH2 0x828 JUMP JUMPDEST SWAP3 POP POP PUSH1 0x20 PUSH2 0xAE1 DUP6 DUP3 DUP7 ADD PUSH2 0x877 JUMP JUMPDEST SWAP2 POP POP SWAP3 POP SWAP3 SWAP1 POP JUMP JUMPDEST PUSH1 0x0 DUP3 DUP3 MSTORE PUSH1 0x20 DUP3 ADD SWAP1 POP SWAP3 SWAP2 POP POP JUMP JUMPDEST PUSH32 0x4F6E6C7920746865206F7267616E697365722063616E20726567697374657220 PUSH1 0x0 DUP3 ADD MSTORE PUSH32 0x63616E6469646174657300000000000000000000000000000000000000000000 PUSH1 0x20 DUP3 ADD MSTORE POP JUMP JUMPDEST PUSH1 0x0 PUSH2 0xB58 PUSH1 0x2A DUP4 PUSH2 0xAEB JUMP JUMPDEST SWAP2 POP PUSH2 0xB63 DUP3 PUSH2 0xAFC JUMP JUMPDEST PUSH1 0x40 DUP3 ADD SWAP1 POP SWAP2 SWAP1 POP JUMP JUMPDEST PUSH1 0x0 PUSH1 0x20 DUP3 ADD SWAP1 POP DUP2 DUP2 SUB PUSH1 0x0 DUP4 ADD MSTORE PUSH2 0xB87 DUP2 PUSH2 0xB4B JUMP JUMPDEST SWAP1 POP SWAP2 SWAP1 POP JUMP JUMPDEST PUSH1 0x0 DUP2 MLOAD SWAP1 POP SWAP2 SWAP1 POP JUMP JUMPDEST PUSH32 0x4E487B7100000000000000000000000000000000000000000000000000000000 PUSH1 0x0 MSTORE PUSH1 0x22 PUSH1 0x4 MSTORE PUSH1 0x24 PUSH1 0x0 REVERT JUMPDEST PUSH1 0x0 PUSH1 0x2 DUP3 DIV SWAP1 POP PUSH1 0x1 DUP3 AND DUP1 PUSH2 0xBE0 JUMPI PUSH1 0x7F DUP3 AND SWAP2 POP JUMPDEST PUSH1 0x20 DUP3 LT DUP2 SUB PUSH2 0xBF3 JUMPI PUSH2 0xBF2 PUSH2 0xB99 JUMP JUMPDEST JUMPDEST POP SWAP2 SWAP1 POP JUMP JUMPDEST PUSH1 0x0 DUP2 SWAP1 POP DUP2 PUSH1 0x0 MSTORE PUSH1 0x20 PUSH1 0x0 KECCAK256 SWAP1 POP SWAP2 SWAP1 POP JUMP JUMPDEST PUSH1 0x0 PUSH1 0x20 PUSH1 0x1F DUP4 ADD DIV SWAP1 POP SWAP2 SWAP1 POP JUMP JUMPDEST PUSH1 0x0 DUP3 DUP3 SHL SWAP1 POP SWAP3 SWAP2 POP POP JUMP JUMPDEST PUSH1 0x0 PUSH1 0x8 DUP4 MUL PUSH2 0xC5B PUSH32 0xFFFFFFFFFFFFFFFFFFFFFFFFFFFFFFFFFFFFFFFFFFFFFFFFFFFFFFFFFFFFFFFF DUP3 PUSH2 0xC1E JUMP JUMPDEST PUSH2 0xC65 DUP7 DUP4 PUSH2 0xC1E JUMP JUMPDEST SWAP6 POP DUP1 NOT DUP5 AND SWAP4 POP DUP1 DUP7 AND DUP5 OR SWAP3 POP POP POP SWAP4 SWAP3 POP POP POP JUMP JUMPDEST PUSH1 0x0 DUP2 SWAP1 POP SWAP2 SWAP1 POP JUMP JUMPDEST PUSH1 0x0 PUSH2 0xCA2 PUSH2 0xC9D PUSH2 0xC98 DUP5 PUSH2 0x856 JUMP JUMPDEST PUSH2 0xC7D JUMP JUMPDEST PUSH2 0x856 JUMP JUMPDEST SWAP1 POP SWAP2 SWAP1 POP JUMP JUMPDEST PUSH1 0x0 DUP2 SWAP1 POP SWAP2 SWAP1 POP JUMP JUMPDEST PUSH2 0xCBC DUP4 PUSH2 0xC87 JUMP JUMPDEST PUSH2 0xCD0 PUSH2 0xCC8 DUP3 PUSH2 0xCA9 JUMP JUMPDEST DUP5 DUP5 SLOAD PUSH2 0xC2B JUMP JUMPDEST DUP3 SSTORE POP POP POP POP JUMP JUMPDEST PUSH1 0x0 SWAP1 JUMP JUMPDEST PUSH2 0xCE5 PUSH2 0xCD8 JUMP JUMPDEST PUSH2 0xCF0 DUP2 DUP5 DUP5 PUSH2 0xCB3 JUMP JUMPDEST POP POP POP JUMP JUMPDEST JUMPDEST DUP2 DUP2 LT ISZERO PUSH2 0xD14 JUMPI PUSH2 0xD09 PUSH1 0x0 DUP3 PUSH2 0xCDD JUMP JUMPDEST PUSH1 0x1 DUP2 ADD SWAP1 POP PUSH2 0xCF6 JUMP JUMPDEST POP POP JUMP JUMPDEST PUSH1 0x1F DUP3 GT ISZERO PUSH2 0xD59 JUMPI PUSH2 0xD2A DUP2 PUSH2 0xBF9 JUMP JUMPDEST PUSH2 0xD33 DUP5 PUSH2 0xC0E JUMP JUMPDEST DUP2 ADD PUSH1 0x20 DUP6 LT ISZERO PUSH2 0xD42 JUMPI DUP2 SWAP1 POP JUMPDEST PUSH2 0xD56 PUSH2 0xD4E DUP6 PUSH2 0xC0E JUMP JUMPDEST DUP4 ADD DUP3 PUSH2 0xCF5 JUMP JUMPDEST POP POP JUMPDEST POP POP POP JUMP JUMPDEST PUSH1 0x0 DUP3 DUP3 SHR SWAP1 POP SWAP3 SWAP2 POP POP JUMP JUMPDEST PUSH1 0x0 PUSH2 0xD7C PUSH1 0x0 NOT DUP5 PUSH1 0x8 MUL PUSH2 0xD5E JUMP JUMPDEST NOT DUP1 DUP4 AND SWAP2 POP POP SWAP3 SWAP2 POP POP JUMP JUMPDEST PUSH1 0x0 PUSH2 0xD95 DUP4 DUP4 PUSH2 0xD6B JUMP JUMPDEST SWAP2 POP DUP3 PUSH1 0x2 MUL DUP3 OR SWAP1 POP SWAP3 SWAP2 POP POP JUMP JUMPDEST PUSH2 0xDAE DUP3 PUSH2 0xB8E JUMP JUMPDEST PUSH8 0xFFFFFFFFFFFFFFFF DUP2 GT ISZERO PUSH2 0xDC7 JUMPI PUSH2 0xDC6 PUSH2 0x72B JUMP JUMPDEST JUMPDEST PUSH2 0xDD1 DUP3 SLOAD PUSH2 0xBC8 JUMP JUMPDEST PUSH2 0xDDC DUP3 DUP3 DUP6 PUSH2 0xD18 JUMP JUMPDEST PUSH1 0x0 PUSH1 0x20 SWAP1 POP PUSH1 0x1F DUP4 GT PUSH1 0x1 DUP2 EQ PUSH2 0xE0F JUMPI PUSH1 0x0 DUP5 ISZERO PUSH2 0xDFD JUMPI DUP3 DUP8 ADD MLOAD SWAP1 POP JUMPDEST PUSH2 0xE07 DUP6 DUP3 PUSH2 0xD89 JUMP JUMPDEST DUP7 SSTORE POP PUSH2 0xE6F JUMP JUMPDEST PUSH1 0x1F NOT DUP5 AND PUSH2 0xE1D DUP7 PUSH2 0xBF9 JUMP JUMPDEST PUSH1 0x0 JUMPDEST DUP3 DUP2 LT ISZERO PUSH2 0xE45 JUMPI DUP5 DUP10 ADD MLOAD DUP3 SSTORE PUSH1 0x1 DUP3 ADD SWAP2 POP PUSH1 0x20 DUP6 ADD SWAP5 POP PUSH1 0x20 DUP2 ADD SWAP1 POP PUSH2 0xE20 JUMP JUMPDEST DUP7 DUP4 LT ISZERO PUSH2 0xE62 JUMPI DUP5 DUP10 ADD MLOAD PUSH2 0xE5E PUSH1 0x1F DUP10 AND DUP3 PUSH2 0xD6B JUMP JUMPDEST DUP4 SSTORE POP JUMPDEST PUSH1 0x1 PUSH1 0x2 DUP9 MUL ADD DUP9 SSTORE POP POP POP JUMPDEST POP POP POP POP POP POP JUMP JUMPDEST PUSH32 0x4E487B7100000000000000000000000000000000000000000000000000000000 PUSH1 0x0 MSTORE PUSH1 0x11 PUSH1 0x4 MSTORE PUSH1 0x24 PUSH1 0x0 REVERT JUMPDEST PUSH1 0x0 PUSH2 0xEB1 DUP3 PUSH2 0x856 JUMP JUMPDEST SWAP2 POP PUSH32 0xFFFFFFFFFFFFFFFFFFFFFFFFFFFFFFFFFFFFFFFFFFFFFFFFFFFFFFFFFFFFFFFF DUP3 SUB PUSH2 0xEE3 JUMPI PUSH2 0xEE2 PUSH2 0xE77 JUMP JUMPDEST JUMPDEST PUSH1 0x1 DUP3 ADD SWAP1 POP SWAP2 SWAP1 POP JUMP JUMPDEST PUSH32 0x596F7520617265206E6F74206120766F74657200000000000000000000000000 PUSH1 0x0 DUP3 ADD MSTORE POP JUMP JUMPDEST PUSH1 0x0 PUSH2 0xF24 PUSH1 0x13 DUP4 PUSH2 0xAEB JUMP JUMPDEST SWAP2 POP PUSH2 0xF2F DUP3 PUSH2 0xEEE JUMP JUMPDEST PUSH1 0x20 DUP3 ADD SWAP1 POP SWAP2 SWAP1 POP JUMP JUMPDEST PUSH1 0x0 PUSH1 0x20 DUP3 ADD SWAP1 POP DUP2 DUP2 SUB PUSH1 0x0 DUP4 ADD MSTORE PUSH2 0xF53 DUP2 PUSH2 0xF17 JUMP JUMPDEST SWAP1 POP SWAP2 SWAP1 POP JUMP JUMPDEST PUSH32 0x596F75206861766520616C726561647920766F74656400000000000000000000 PUSH1 0x0 DUP3 ADD MSTORE POP JUMP JUMPDEST PUSH1 0x0 PUSH2 0xF90 PUSH1 0x16 DUP4 PUSH2 0xAEB JUMP JUMPDEST SWAP2 POP PUSH2 0xF9B DUP3 PUSH2 0xF5A JUMP JUMPDEST PUSH1 0x20 DUP3 ADD SWAP1 POP SWAP2 SWAP1 POP JUMP JUMPDEST PUSH1 0x0 PUSH1 0x20 DUP3 ADD SWAP1 POP DUP2 DUP2 SUB PUSH1 0x0 DUP4 ADD MSTORE PUSH2 0xFBF DUP2 PUSH2 0xF83 JUMP JUMPDEST SWAP1 POP SWAP2 SWAP1 POP JUMP JUMPDEST PUSH1 0x0 PUSH2 0xFD1 DUP3 PUSH2 0x856 JUMP JUMPDEST SWAP2 POP PUSH2 0xFDC DUP4 PUSH2 0x856 JUMP JUMPDEST SWAP3 POP DUP3 DUP3 ADD SWAP1 POP DUP1 DUP3 GT ISZERO PUSH2 0xFF4 JUMPI PUSH2 0xFF3 PUSH2 0xE77 JUMP JUMPDEST JUMPDEST SWAP3 SWAP2 POP POP JUMP JUMPDEST PUSH32 0x596F7520617265206E6F7420656C696769626C6520746F20766F746500000000 PUSH1 0x0 DUP3 ADD MSTORE POP JUMP JUMPDEST PUSH1 0x0 PUSH2 0x1030 PUSH1 0x1C DUP4 PUSH2 0xAEB JUMP JUMPDEST SWAP2 POP PUSH2 0x103B DUP3 PUSH2 0xFFA JUMP JUMPDEST PUSH1 0x20 DUP3 ADD SWAP1 POP SWAP2 SWAP1 POP JUMP JUMPDEST PUSH1 0x0 PUSH1 0x20 DUP3 ADD SWAP1 POP DUP2 DUP2 SUB PUSH1 0x0 DUP4 ADD MSTORE PUSH2 0x105F DUP2 PUSH2 0x1023 JUMP JUMPDEST SWAP1 POP SWAP2 SWAP1 POP JUMP JUMPDEST PUSH32 0x596F752061726520616C72656164792072656769737465726564000000000000 PUSH1 0x0 DUP3 ADD MSTORE POP JUMP JUMPDEST PUSH1 0x0 PUSH2 0x109C PUSH1 0x1A DUP4 PUSH2 0xAEB JUMP JUMPDEST SWAP2 POP PUSH2 0x10A7 DUP3 PUSH2 0x1066 JUMP JUMPDEST PUSH1 0x20 DUP3 ADD SWAP1 POP SWAP2 SWAP1 POP JUMP JUMPDEST PUSH1 0x0 PUSH1 0x20 DUP3 ADD SWAP1 POP DUP2 DUP2 SUB PUSH1 0x0 DUP4 ADD MSTORE PUSH2 0x10CB DUP2 PUSH2 0x108F JUMP JUMPDEST SWAP1 POP SWAP2 SWAP1 POP JUMP INVALID LOG2 PUSH5 0x6970667358 0x22 SLT KECCAK256 PUSH11 0xD7D293DD46B00F6014B0A4 LT DUP11 SWAP7 0xB0 0x2B SWAP14 DUP10 CALLDATACOPY DUP4 PUSH1 0xE 0xCF PUSH18 0x237A5E9DE9E7E64736F6C63430008120033 "
				},
				"gasEstimates": {
					"creation": {
						"codeDepositCost": "872000",
						"executionCost": "infinite",
						"totalCost": "infinite"
					},
					"external": {
						"candidateAddresses(uint256)": "5022",
						"castVote(address)": "infinite",
						"getCandidateAddresses()": "infinite",
						"organizer()": "2533",
						"registerCandidate(address,string,string,uint256)": "infinite",
						"registerVoter(string,uint256)": "infinite"
					}
				},
				"methodIdentifiers": {
					"candidateAddresses(uint256)": "d55d73c5",
					"castVote(address)": "53358fc4",
					"getCandidateAddresses()": "8155f736",
					"organizer()": "61203265",
					"registerCandidate(address,string,string,uint256)": "24a557b0",
					"registerVoter(string,uint256)": "e661ea5f"
				}
			},
			"storageLayout": {
				"storage": [
					{
						"astId": 3,
						"contract": "DEVESH/LearnBlockchain/VotingSytem Project/contracts/Voting.sol:Voting",
						"label": "organizer",
						"offset": 0,
						"slot": "0",
						"type": "t_address"
					},
					{
						"astId": 5,
						"contract": "DEVESH/LearnBlockchain/VotingSytem Project/contracts/Voting.sol:Voting",
						"label": "votingPeriod",
						"offset": 0,
						"slot": "1",
						"type": "t_uint256"
					},
					{
						"astId": 7,
						"contract": "DEVESH/LearnBlockchain/VotingSytem Project/contracts/Voting.sol:Voting",
						"label": "candidateCount",
						"offset": 0,
						"slot": "2",
						"type": "t_uint256"
					},
					{
						"astId": 10,
						"contract": "DEVESH/LearnBlockchain/VotingSytem Project/contracts/Voting.sol:Voting",
						"label": "candidateAddresses",
						"offset": 0,
						"slot": "3",
						"type": "t_array(t_address)dyn_storage"
					},
					{
						"astId": 45,
						"contract": "DEVESH/LearnBlockchain/VotingSytem Project/contracts/Voting.sol:Voting",
						"label": "candidates",
						"offset": 0,
						"slot": "4",
						"type": "t_mapping(t_address,t_struct(electionCandidate)35_storage)"
					},
					{
						"astId": 50,
						"contract": "DEVESH/LearnBlockchain/VotingSytem Project/contracts/Voting.sol:Voting",
						"label": "votersList",
						"offset": 0,
						"slot": "5",
						"type": "t_mapping(t_address,t_struct(Voter)40_storage)"
					},
					{
						"astId": 54,
						"contract": "DEVESH/LearnBlockchain/VotingSytem Project/contracts/Voting.sol:Voting",
						"label": "hasVoted",
						"offset": 0,
						"slot": "6",
						"type": "t_mapping(t_address,t_bool)"
					}
				],
				"types": {
					"t_address": {
						"encoding": "inplace",
						"label": "address",
						"numberOfBytes": "20"
					},
					"t_array(t_address)dyn_storage": {
						"base": "t_address",
						"encoding": "dynamic_array",
						"label": "address[]",
						"numberOfBytes": "32"
					},
					"t_bool": {
						"encoding": "inplace",
						"label": "bool",
						"numberOfBytes": "1"
					},
					"t_mapping(t_address,t_bool)": {
						"encoding": "mapping",
						"key": "t_address",
						"label": "mapping(address => bool)",
						"numberOfBytes": "32",
						"value": "t_bool"
					},
					"t_mapping(t_address,t_struct(Voter)40_storage)": {
						"encoding": "mapping",
						"key": "t_address",
						"label": "mapping(address => struct Voting.Voter)",
						"numberOfBytes": "32",
						"value": "t_struct(Voter)40_storage"
					},
					"t_mapping(t_address,t_struct(electionCandidate)35_storage)": {
						"encoding": "mapping",
						"key": "t_address",
						"label": "mapping(address => struct Voting.electionCandidate)",
						"numberOfBytes": "32",
						"value": "t_struct(electionCandidate)35_storage"
					},
					"t_string_storage": {
						"encoding": "bytes",
						"label": "string",
						"numberOfBytes": "32"
					},
					"t_struct(Voter)40_storage": {
						"encoding": "inplace",
						"label": "struct Voting.Voter",
						"members": [
							{
								"astId": 37,
								"contract": "DEVESH/LearnBlockchain/VotingSytem Project/contracts/Voting.sol:Voting",
								"label": "name",
								"offset": 0,
								"slot": "0",
								"type": "t_string_storage"
							},
							{
								"astId": 39,
								"contract": "DEVESH/LearnBlockchain/VotingSytem Project/contracts/Voting.sol:Voting",
								"label": "age",
								"offset": 0,
								"slot": "1",
								"type": "t_uint256"
							}
						],
						"numberOfBytes": "64"
					},
					"t_struct(electionCandidate)35_storage": {
						"encoding": "inplace",
						"label": "struct Voting.electionCandidate",
						"members": [
							{
								"astId": 28,
								"contract": "DEVESH/LearnBlockchain/VotingSytem Project/contracts/Voting.sol:Voting",
								"label": "name",
								"offset": 0,
								"slot": "0",
								"type": "t_string_storage"
							},
							{
								"astId": 30,
								"contract": "DEVESH/LearnBlockchain/VotingSytem Project/contracts/Voting.sol:Voting",
								"label": "party",
								"offset": 0,
								"slot": "1",
								"type": "t_string_storage"
							},
							{
								"astId": 32,
								"contract": "DEVESH/LearnBlockchain/VotingSytem Project/contracts/Voting.sol:Voting",
								"label": "age",
								"offset": 0,
								"slot": "2",
								"type": "t_uint256"
							},
							{
								"astId": 34,
								"contract": "DEVESH/LearnBlockchain/VotingSytem Project/contracts/Voting.sol:Voting",
								"label": "votes",
								"offset": 0,
								"slot": "3",
								"type": "t_uint256"
							}
						],
						"numberOfBytes": "128"
					},
					"t_uint256": {
						"encoding": "inplace",
						"label": "uint256",
						"numberOfBytes": "32"
					}
				}
			},
			"userdoc": {
				"kind": "user",
				"methods": {},
				"version": 1
			}
		}
	}
}